:020000040800F2
:10000000D0F10020D5370108D9360108DB360108C8
:10001000DD360108DF360108E13601080000000086
:10002000000000000000000000000000E3360108AE
:10003000E536010800000000E7360108E93601084E
:1000400005380108093801080D3801081138010880
:1000500015380108193801081D3801082138010830
:1000600025380108293801082D38010831380108E0
:1000700035380108393801083D3801084138010890
:1000800045380108493801084D3801085138010840
:1000900011370108593801085D3801086138010835
:1000A00065380108693801086D38010871380108A0
:1000B00075380108793801087D3801088138010850
:1000C00085380108893801088D3801089138010800
:1000D00095380108993801089D380108A1380108B0
:1000E000A5380108A9380108AD3801080000000052
:1000F0000000000000000000000000000000000000
:100100000000000000000000B1380108B538010807
:10011000B9380108BD380108C1380108C5380108DF
:10012000C9380108CD380108D1380108D53801088F
:10013000D9380108F1360108E1380108E53801082D
:10014000E9380108ED380108F1380108F5380108EF
:1080000000200021080080B2322808D280B20A2164
:10801000974A01FB002100220A81401CF3E77047C8
:1080200017B5002400200400A4B2322C19D2A4B247
:108030000A208F4900FB0410008900280FD1A4B248
:108040000A208B4900FB041000A90A2201F040FC21
:10805000A4B20A20864900FB041001210181641C9E
:10806000E2E717BD10B582B0002400200400A4B2DE
:10807000322C80F0FC80A4B20A207D4900FB041061
:108080000089012840F0F180A4B20A20784900FB61
:108090000410808801280CD3A4B20A20744900FB84
:1080A00004108088401EA4B20A21714A01FB0421F9
:1080B0008880A4B20A206E4900FB04108088002842
:1080C00040F0D380A4B20A20694900FB04100021CB
:1080D0000181A4B20A20664900FB0410007801283F
:1080E0003BD1A4B20A20624900FB0410C088614958
:1080F00011EB4000A4B20A215D4A01FB0421C988AA
:108100005C4A12EB410131F8041C491C20F8041CA4
:10811000A4B20A20564900FB041040788DF80100F3
:10812000A4B20A20524900FB041000788DF8000028
:10813000A4B20A204E4900FB0410C288D2B2A4B2F5
:108140000A204B4900FB0410C0884A4911EB40004B
:1081500030F8041C009801F0CBFFA4B20A20444977
:1081600000FB0410007802283BD1A4B20A20404949
:1081700000FB0410C088404911EB4000A4B20A2162
:108180003B4A01FB0421C9883B4A12EB410131F80B
:10819000041C491C20F8041CA4B20A20344900FB2A
:1081A000041040788DF80100A4B20A20304900FB89
:1081B000041000788DF80000A4B20A202C4900FBBE
:1081C0000410C288D2B2A4B20A20294900FB0410CC
:1081D000C088294911EB400030F8041C009801F0D8
:1081E00087FFA4B20A20224900FB0410007803286C
:1081F0003BD1A4B20A201E4900FB0410C0881F49CD
:1082000011EB4000A4B20A21194A01FB0421C988DC
:108210001A4A12EB410131F8041C491C20F8041CD5
:10822000A4B20A20124900FB041040788DF8010026
:10823000A4B20A200E4900FB041000788DF800005B
:10824000A4B20A200A4900FB0410C288D2B2A4B228
:108250000A20074900FB0410C088084911EB4000C0
:1082600030F8041C009801F043FF641CFFE613BDC6
:108270008CD3002060D70020F0D8002080DA0020C6
:108280002DE9F04F8FB05FF0000B0020ADF8140027
:10829000002400265FF000095FF000080025002799
:1082A0005FF0000A00208DF8100000208DF811000A
:1082B0000020ADF8120000208DF80D0000208DF890
:1082C000090000208DF8050025488346BBF808000A
:1082D000ADF81400DBF81000CBF80400DBF8040064
:1082E0000088BDF81410884201F0E982DBF8040030
:1082F00000690400B4F8C601002841F0D982208941
:10830000401EB4F8A0118842C1F2D282B4F8C8016C
:10831000401CA4F8C801B4F8A601401CA4F8A601AA
:10832000B4F8B401401CA4F8B401B4F89E010128CB
:1083300004D3B4F89E01401EA4F89E01B4F8A00135
:1083400000280FD0B4F8A00114EB4000008902F01F
:108350008AF80600B188708802F0A0F8050003E0F2
:10836000CCE0002000200600B4F8A00114EB40008F
:108370004089A4F8A201B4F8A20102F074F8814681
:10838000B9F80410B9F8020002F088F80700B4F850
:10839000A0012189491E884208DB4FF6FF70A4F82E
:1083A000B001002080460020824612E0B4F8A0010F
:1083B00014EB40008089A4F8B001B4F8B00102F0D9
:1083C00052F88046B8F80410B8F8020002F066F8D7
:1083D0008246B4F8A0012189891E884204DB4FF649
:1083E000FF70A4F8C40106E0B4F8A00114EB40004B
:1083F000C089A4F8C401B4F8A00100280ED10BA8CC
:1084000049460E2201F064FA4FF6FF7000900BA867
:108410000FC802F07DF88DF8100010E00BA8494657
:108420000E2201F055FAB4F8A00114EB40000089C7
:1084300000900BA80FC802F06BF88DF810000BA885
:1084400049460E2201F044FAB4F8B00100900BA89E
:108450000FC802F05DF88DF811009DF811109DF81D
:10846000100002F07DF8A4F8A801B4F8B0014FF6AE
:10847000FF71884223D00BA841460E2201F028FA52
:10848000B4F8A20100900BA80FC802F041F88DF8D3
:1084900010000BA841460E2201F01AFAB4F8C401EC
:1084A00000900BA80FC802F033F88DF811009DF86A
:1084B00011109DF8100002F053F8A4F8B601BAF1BB
:1084C000000F24D0DAF80600002808D1DAF80A00F4
:1084D000002806D0DAF80A006168884201D001203D
:1084E00000E00020C0B2ADF81200B4F8BC01BDF845
:1084F000121088420BD0BDF81200A4F8BC01012074
:10850000A4F8BE01B4F8C001401CA4F8C001002EBC
:1085100000F03B81D5F806006168884240F0358163
:10852000B4F89E01002840F03081B4F89C01012885
:1085300002D1A87880070DD5B4F89C010A2802D191
:10854000A878800706D5B4F89C010C2839D1A87802
:10855000000736D4002E34D0D5F806006168884272
:108560002FD10020C5F80600D5F80A0061688842BE
:1085700002D10020C5F80A00B0888DF8040002205E
:108580008DF80500019806900020ADF81C00708859
:10859000ADF81E000120ADF8200006A807C8FFF7BF
:1085A0003FFD0020E88168884FF61F610840688021
:1085B000688850F020006880A8884FF6FF110840B6
:1085C000A880B4F89C01022802D1A87840070DD5F4
:1085D000B4F89C01092802D1A878C00606D5B4F8E1
:1085E0009C010B2839D1A878400736D4002E34D00E
:1085F000D5F80600616888422FD10020C5F8060032
:10860000B0888DF8040002208DF8050001980690CE
:108610000020ADF81C007088ADF81E000120ADF8F8
:10862000200006A807C8FFF7FBFC0020E881688847
:108630004FF61F6108406880688850F0200068800D
:10864000A8884FF6FF110840A880D5F80A00616895
:10865000884202D10020C5F80A00B4F89C01042821
:1086600002D1A87840070DD5B4F89C01052802D1A5
:10867000A878000706D5B4F89C01072839D1A87856
:10868000400736D4002E34D0D5F806006168884201
:108690002FD10020C5F80600B0888DF80400022014
:1086A0008DF80500019806900020ADF81C00708838
:1086B000ADF81E000120ADF8200006A807C8FFF79E
:1086C000AFFC0020E88168884FF61F610840688091
:1086D000688850F020006880A8884FF6FF11084095
:1086E000A880D5F80A006168884202D10020C5F848
:1086F0000A00B4F89C01032802D1A87880070DD5A0
:10870000B4F89C01062802D1A878800706D5B4F8F1
:108710009C01082839D1A878C00636D4002E34D060
:10872000D5F80600616888422FD10020C5F8060000
:10873000B0888DF8040002208DF80500019806909D
:108740000020ADF81C007088ADF81E000120ADF8C7
:10875000200006A807C8FFF763FC0020E8816888AE
:108760004FF61F6108406880688850F020006880DC
:10877000A8884FF6FF110840A880D5F80A00616864
:10878000884202D10020C5F80A00B4F8A00121896E
:10879000491E884240F0308178884FF61F610840BA
:1087A0007880788850F040007880B8884FF6FF5184
:1087B0000840B8806068C7F80600D7F80A0061680A
:1087C000884202D10020C7F80A007888C0F38000F0
:1087D00080B2002803D0B4F8A80102280BD0788812
:1087E000C0F3400080B2002800F00284B4F8A80171
:1087F000012840F0FD830320A4F8C60160680990B9
:108800000320ADF82800DDE9090101F0D0FC0020CB
:10881000A4F8A6010020A4F8B401F889002840F0CB
:10882000E480B9F80400012824D1B9F80200DFF887
:10883000E41B11EB4000B9F80210DFF8D82B12EB63
:10884000410131F8041C491C20F8041C02208DF859
:10885000050001208DF80400B9F80220D2B2B9F861
:108860000200DFF8B01B11EB400030F8041C019847
:1088700001F03EFCB9F80400022824D1B9F8020046
:10888000DFF8941B11EB4000B9F80210DFF8882BD9
:1088900012EB410131F8041C491C20F8041C022091
:1088A0008DF8050002208DF80400B9F80220D2B23C
:1088B000B9F80200DFF8601B11EB400030F8041C2F
:1088C000019801F015FC002E00F08D80D5F806000F
:1088D0006168884240F087800020C5F80600B088B3
:1088E000012820D17088DFF82C1B11EB4000718823
:1088F000DFF8202B12EB410131F8041C491C20F851
:10890000041C02208DF8050001208DF804007288F7
:10891000D2B27088DFF8FC1A11EB400030F8041C6A
:10892000019801F0E5FBB088022820D17088DFF8BB
:10893000E81A11EB40007188DFF8DC2A12EB4101E4
:1089400031F8041C491C20F8041C02208DF8050095
:1089500002208DF804007288D2B27088DFF8B81A4D
:1089600011EB400030F8041C019801F0C1FBB08805
:10897000032820D17088DFF8001811EB40007188BF
:10898000DFF8F42712EB410131F8041C491C20F8F0
:10899000041C02208DF8050003208DF80400728865
:1089A000D2B27088DFF8D01711EB400030F8041C09
:1089B000019801F09DFB0020E88168884FF61F6157
:1089C00008406880688850F020006880A8884FF6CA
:1089D000FF110840A880D5F80A006168884202D1DA
:1089E0000020C5F80A000120F8810120F8812068E4
:1089F00001F08DFE00F05CBF78884FF61F610840E3
:108A00007880788850F040007880B8884FF6FF5121
:108A10000840B8806068C7F80600D7F80A006168A7
:108A2000884202D10020C7F80A00DAF80A000028BC
:108A300002D16068CAF80A00B4F8A801012803D17D
:108A4000B8780A21084215D1B4F8A8010A2805D13E
:108A50007888C0F3400080B200280BD1B4F8A80198
:108A60000C2840F0A8807888C0F3C00080B20028AD
:108A700000F0A18078884FF61F61084078807888E0
:108A800050F080007880B4F8AC01002840F093806A
:108A9000002E00F08D80D5F806006168884240F015
:108AA00087800020C5F80600B088012820D1708892
:108AB000DFF8601911EB40007188DFF8582912EBDC
:108AC000410131F8041C491C20F8041C02208DF8D7
:108AD000050001208DF804007288D2B27088DFF89A
:108AE000341911EB400030F8041C019801F000FB30
:108AF000B088022820D17088DFF81C1911EB4000E3
:108B00007188DFF8142912EB410131F8041C491C6B
:108B100020F8041C02208DF8050002208DF80400C6
:108B20007288D2B27088DFF8F01811EB400030F88C
:108B3000041C019801F0DCFAB088032820D1708869
:108B4000DFF8341611EB40007188DFF82C2612EBA9
:108B5000410131F8041C491C20F8041C02208DF846
:108B6000050003208DF804007288D2B27088DFF807
:108B7000081611EB400030F8041C019801F0B8FA17
:108B80000020E88168884FF61F6108406880688887
:108B900050F020006880A8884FF6FF110840A88098
:108BA000D5F80A006168884202D10020C5F80A00A1
:108BB0000120A4F8AC01B4F8A801022803D1B878C8
:108BC0001421084215D1B4F8A801092805D17888E4
:108BD000C0F3001080B200280BD1B4F8A8010B2814
:108BE00040F0A0807888C0F3800080B2002800F0B8
:108BF000998078884FF61F6108407880788850F017
:108C000080007880B4F8AC01002840F08B80002E02
:108C100000F08580D5F806006168884240F07F80CA
:108C20000020C5F80600B088012820D17088DFF840
:108C3000E41711EB40007188DFF8D82712EB4101EF
:108C400031F8041C491C20F8041C02208DF8050092
:108C500001208DF804007288D2B27088DFF8B41752
:108C600011EB400030F8041C019801F041FAB08883
:108C7000022820D17088DFF8A01711EB400071881E
:108C8000DFF8942712EB410131F8041C491C20F84D
:108C9000041C02208DF8050002208DF80400728863
:108CA000D2B27088DFF8701711EB400030F8041C66
:108CB000019801F01DFAB088032820D17088DFF8F0
:108CC000B81411EB40007188DFF8AC2412EB4101BD
:108CD00031F8041C491C20F8041C02208DF8050002
:108CE00003208DF804007288D2B27088DFF88814EF
:108CF00011EB400030F8041C019801F0F9F9002054
:108D0000E88168884FF61F6108406880688850F0E5
:108D100020006880A8884FF6FF110840A880012035
:108D2000A4F8AC01B4F8A801042803D1B8780C2148
:108D3000084215D1B4F8A801052805D17888C0F3F8
:108D4000C00080B200280BD1B4F8A801072840F079
:108D50009C807888C0F3800080B2002800F0958065
:108D600078884FF61F6108407880788850F080003E
:108D70007880B4F8AC01002840F08780002E00F025
:108D80008180D5F80600616888427BD10020C5F853
:108D90000600B088012820D17088DFF8781611EB22
:108DA00040007188DFF86C2612EB410131F8041C99
:108DB000491C20F8041C02208DF8050001208DF8C4
:108DC00004007288D2B27088DFF8481611EB4000B8
:108DD00030F8041C019801F08BF9B088022820D1EA
:108DE0007088DFF8341611EB40007188DFF8282610
:108DF00012EB410131F8041C491C20F8041C02202C
:108E00008DF8050002208DF804007288D2B27088B7
:108E1000DFF8041611EB400030F8041C019801F053
:108E200067F9B08803281DD17088D34911EB400041
:108E30007188D14A12EB410131F8041C491C20F819
:108E4000041C02208DF8050003208DF804007288B0
:108E5000D2B27088C84911EB400030F8041C019868
:108E600001F046F90020E88168884FF61F6108404C
:108E70006880688850F020006880A8884FF6FF114D
:108E80000840A8800120A4F8AC01B4F8A801032888
:108E900003D1B8781221084215D1B4F8A8010628E8
:108EA00005D17888C0F3400080B200280BD1B4F817
:108EB000A801082840F09C807888C0F3001080B298
:108EC000002800F0958078884FF61F610840788070
:108ED000788850F080007880B4F8AC01002840F029
:108EE0008780002E00F08180D5F8060061688842F6
:108EF0007BD10020C5F80600B088012820D17088F9
:108F0000DFF8101511EB40007188DFF8082512EB2F
:108F1000410131F8041C491C20F8041C02208DF882
:108F2000050001208DF804007288D2B27088DFF845
:108F3000E41411EB400030F8041C019801F0D8F85B
:108F4000B088022820D17088DFF8CC1411EB4000E3
:108F50007188DFF8C42412EB410131F8041C491C6C
:108F600020F8041C02208DF8050002208DF8040072
:108F70007288D2B27088DFF8A01411EB400030F88C
:108F8000041C019801F0B4F8B08803281DD1708842
:108F9000794911EB40007188774A12EB410131F8B1
:108FA000041C491C20F8041C02208DF80500032035
:108FB0008DF804007288D2B270886F4911EB4000BE
:108FC00030F8041C019801F093F80020E8816888CB
:108FD0004FF61F6108406880688850F02000688064
:108FE000A8884FF6FF110840A8800120A4F8AC0122
:108FF000B4F8B0014FF6FF71884200F0BF80DAF894
:109000000600002840F0BA80DAF80A00002805D0EF
:10901000DAF80A006168884240F0B080BAF80200CD
:109020004FF61F610840AAF80200BAF802004FF498
:1090300080710843AAF802009AF802001E21084233
:1090400000F09C80002E7CD0D5F806006168884234
:1090500077D10020C5F80600B08801281FD170889C
:10906000DFF8B01311EB40007188DFF8A82312EB92
:10907000410131F8041C491C20F8041C02208DF821
:10908000050001208DF804007288D2B27088E14991
:1090900011EB400030F8041C019801F029F8B08869
:1090A00002281DD17088DC4911EB40007188DA4A32
:1090B00012EB410131F8041C491C20F8041C022069
:1090C0008DF8050002208DF804007288D2B27088F5
:1090D000D14911EB400030F8041C019801F008F868
:1090E000B08803281DD17088234911EB4000718896
:1090F000214A12EB410131F8041C491C20F8041CE0
:1091000002208DF8050003208DF804007288D2B289
:109110007088194911EB400030F8041C019800F0E8
:10912000E7FF0020E88168884FF61F6108406880EB
:10913000688850F020006880A8884FF6FF1108402A
:10914000A880B4F8A801A4F89C01B4F8A001401CC0
:10915000A4F8A0010020A4F8AC010020A4F8C001EC
:109160000020A4F8BC010020A4F8C2014FF4FA606A
:10917000A4F89E019CE300BF80DA0020B4F8A601A9
:1091800042F21171884203D3B88850F48060B880ED
:10919000B4F8B40142F21171884205D3BAF8040060
:1091A00050F48060AAF80400B4F8A0012189491E97
:1091B000884211DBB9F804008DF80C0001208DF80D
:1091C0000D00B4F8A8018DF80E0002208DF80F00F4
:1091D00000208DF8090080E0B4F8A0012189891EE3
:1091E00088423DD1B4F8BC0100281CD0B9F8040075
:1091F0008DF80C0001208DF80D00B4F8A8018DF851
:109200000E0002208DF80F00B8F804008DF8080059
:1092100002208DF80900B4F8B6018DF80A0002208A
:109220008DF80B0059E0B9F804008DF80C0001200E
:109230008DF80D00B4F8A8018DF80E0001208DF80E
:109240000F00B8F804008DF8080001208DF809001F
:10925000B4F8B6018DF80A0002208DF80B003CE04E
:10926000B4F8BC0100281CD0B9F804008DF80C003B
:1092700001208DF80D00B4F8A8018DF80E00022031
:109280008DF80F00B8F804008DF8080002208DF862
:109290000900B4F8B6018DF80A0001208DF80B0022
:1092A0001BE0B9F804008DF80C0001208DF80D00CA
:1092B000B4F8A8018DF80E0001208DF80F00B8F861
:1092C00004008DF8080001208DF80900B4F8B601FB
:1092D0008DF80A0001208DF80B00B4F8C0010128B8
:1092E0003BD3B4F8A801012807D0B4F8A8010A2894
:1092F00003D0B4F8A8010C2802D101208DF80E008B
:10930000B4F8A801022807D0B4F8A801092803D0AE
:10931000B4F8A8010B2802D102208DF80E00B4F891
:10932000A801042807D0B4F8A801052803D0B4F890
:10933000A801072802D104208DF80E00B4F8A80176
:10934000032807D0B4F8A801062803D0B4F8A80170
:10935000082802D103208DF80E00DAF80A006168AF
:10936000884207D1B4F8AC01002803D0DAF806002F
:10937000002805D000208DF809000120A4F8C201C2
:10938000B4F8A001B4F89A11884200F0E180B4F872
:10939000A001A4F89A019DF80D00002868D09DF85E
:1093A0000C0001281BD1B9F802001A4911EB40004A
:1093B000B9F80210174A12EB410131F8041C491C9C
:1093C00020F8041CB9F80220D2B2B9F80200114901
:1093D00011EB400030F8041C039800F089FE9DF862
:1093E0000C00022821D1B9F802000B4911EB400012
:1093F000B9F80210084A12EB410131F8041C491C6B
:1094000020F8041CB9F80220D2B2B9F802000249CF
:1094100004E000BF60D70020F0D8002011EB40002E
:1094200030F8041C039800F063FE9DF80C0003283C
:109430001ED1B9F80200DFF88C1411EB4000B9F826
:109440000210DFF8802412EB410131F8041C491CA2
:1094500020F8041CB9F80220D2B2B9F80200DFF8F3
:10946000641411EB400030F8041C039800F040FE37
:109470009DF80900002868D09DF8080001281ED139
:10948000B8F80200DFF8401411EB4000B8F8021001
:10949000DFF8342412EB410131F8041C491C20F898
:1094A000041CB8F80220D2B2B8F80200DFF8181491
:1094B00011EB400030F8041C029800F019FE9DF8F2
:1094C000080002281ED1B8F80200DFF8001411EBE2
:1094D0004000B8F80210DFF8F42312EB410131F834
:1094E000041C491C20F8041CB8F80220D2B2B8F8B9
:1094F0000200DFF8D81311EB400030F8041C02988A
:1095000000F0F6FD9DF8080003281ED1B8F802000F
:10951000DFF8B01311EB4000B8F80210DFF8A42315
:1095200012EB410131F8041C491C20F8041CB8F866
:109530000220D2B2B8F80200DFF8881311EB400025
:1095400030F8041C029800F0D3FD0020A4F8C801F4
:10955000B4F8BE01012840F0CB800020A4F8BE0181
:109560009DF80D0000285FD09DF80C0001281BD14C
:10957000B9F80200D44911EB4000B9F80210D24A00
:1095800012EB410131F8041C491C20F8041CB9F805
:109590000220D2B2B9F80200CB4911EB400030F8FA
:1095A000041C039800F0A4FD9DF80C0002281BD1B8
:1095B000B9F80200C54911EB4000B9F80210C34ADE
:1095C00012EB410131F8041C491C20F8041CB9F8C5
:1095D0000220D2B2B9F80200BC4911EB400030F8C9
:1095E000041C039800F084FD9DF80C0003281BD197
:1095F000B9F80200B34911EB4000B9F80210B14AC2
:1096000012EB410131F8041C491C20F8041CB9F884
:109610000220D2B2B9F80200AA4911EB400030F89A
:10962000041C039800F064FD9DF8090000285FD039
:109630009DF8080001281BD1B8F80200A24911EBDF
:109640004000B8F80210A04A12EB410131F8041CA6
:10965000491C20F8041CB8F80220D2B2B8F8020065
:10966000994911EB400030F8041C029800F040FDCD
:109670009DF8080002281BD1B8F80200934911EBAD
:109680004000B8F80210914A12EB410131F8041C75
:10969000491C20F8041CB8F80220D2B2B8F8020025
:1096A0008A4911EB400030F8041C029800F020FDBC
:1096B0009DF8080003281BD1B8F80200814911EB7E
:1096C0004000B8F802107F4A12EB410131F8041C47
:1096D000491C20F8041CB8F80220D2B2B8F80200E5
:1096E000784911EB400030F8041C029800F000FDAE
:1096F000B4F8C201012866D19DF80900002862D0A3
:109700000020A4F8C2019DF8080001281BD1B8F878
:1097100002006D4911EB4000B8F802106A4A12EBE2
:10972000410131F8041C491C20F8041CB8F802203F
:10973000D2B2B8F80200644911EB400030F8041CC2
:10974000029800F0D5FC9DF8080002281BD1B8F85B
:1097500002005E4911EB4000B8F802105B4A12EBC0
:10976000410131F8041C491C20F8041CB8F80220FF
:10977000D2B2B8F80200554911EB400030F8041C91
:10978000029800F0B5FC9DF8080003281BD1B8F83A
:1097900002004C4911EB4000B8F80210494A12EBA4
:1097A000410131F8041C491C20F8041CB8F80220BF
:1097B000D2B2B8F80200434911EB400030F8041C63
:1097C000029800F095FCB4F8C801322870D300204C
:1097D000A4F8C8019DF80D00002832D09DF80C00B7
:1097E00001280CD1B9F80220D2B2B9F802003649EA
:1097F00011EB400030F8041C039800F079FC9DF850
:109800000C0002280CD1B9F80220D2B2B9F802003B
:109810002E4911EB400030F8041C039800F068FC5E
:109820009DF80C0003280CD1B9F80220D2B2B9F887
:109830000200244911EB400030F8041C039800F0AA
:1098400057FC9DF80900002832D09DF80800012837
:109850000CD1B8F80220D2B2B8F802001A4911EBC4
:10986000400030F8041C029800F042FC9DF808000B
:1098700002280CD1B8F80220D2B2B8F8020013497D
:1098800011EB400030F8041C029800F031FC9DF808
:10989000080003280CD1B8F80220D2B2B8F80200B0
:1098A000084911EB400030F8041C029800F020FC3D
:1098B000DBF804008068CBF80400FEF70FBD0FB0A2
:1098C000BDE8F08F80DA002060D70020F0D80020BB
:1098D0004AB38B0707D0521E11F8013B00F8013B39
:1098E00021D08B07F7D183071ED1103A07D330B4AC
:1098F000B1E83810103AA0E83810F9D230BC53075C
:1099000024BFB1E80810A0E8081044BF51F8043B98
:1099100040F8043BD20724BF31F8022B20F8022B79
:1099200044BF0B7803707047083A07D3B1E80810BA
:10993000083A40F8043B40F804CBF7D25307E4E779
:109940000020DFF81C18080032214181DFF81418CC
:1099500001600021C180818070471FB5DFF8004899
:10996000E088401C618990FBF1F201FB1200A188A4
:10997000884210D0E088401C618990FBF1F201FB25
:109980001200E080E0880E21226801FB002000A97F
:109990000E22FFF79DFF1FBD0FB585B09DF8170084
:1099A0009DF8161011F00F0150EA01209DF81510D6
:1099B00011F07F0150EA01309DF8141011F00301FD
:1099C00050EAC1409DF8181050EA4150019004201F
:1099D0008DF8080000208DF809009DF819008DF819
:1099E0000A009DF80A200DF11A010DF10B0000F09C
:1099F0009DFE00A9DFF8700701F003F809B000BD73
:109A0000F8B504000D000026002720780600A07895
:109A10000700B6B2ADB2AE4211D1FFB23800022893
:109A200002D0042805D00AE049F2020001F0A9F9A9
:109A300005E0290089B2200000F03FFBFFE7F1BDFF
:109A4000F0B40023941E23000024DBB2C82B80F066
:109A5000E980DFF818572D88282D0CD2DFF80C5735
:109A60002D88DFF80C67AA55DFF800572D886D1C8C
:109A7000DFF8F8663580DBB23425DFF8F86605FBE1
:109A80000365D2B22A80D2B2082A01D100252C0067
:109A9000DBB23425DFF8DC6605FB03650678EE8073
:109AA000DBB23425DFF8CC6605FB036546782E81F2
:109AB000DBB23425DFF8BC6605FB03658678EE82F1
:109AC000DBB23425DFF8AC6605FB0365C6782E8370
:109AD0000579467955EA0625DBB23426DFF8947617
:109AE00006FB0376F5848579C67955EA0625DBB24F
:109AF0003426DFF8807606FB03763585DBB2342525
:109B0000DFF8706605FB03656D8A012D40D1DBB27D
:109B10003425DFF8606605FB0365ED88ADB26D089E
:109B2000002D35D1DBB23425DFF8486605FB03652F
:109B3000ED88ADB2AD08002D2AD1DBB23425DFF8B7
:109B4000346605FB036500266E82DBB23425DFF840
:109B5000246605FB03650026C5F80A60DBB23425E0
:109B6000DFF8106605FB03650026C5F80E60DBB262
:109B70003425DFF8006605FB03652D894FF6FF16D7
:109B80003540DBB23426DFF8EC7506FB0376358111
:109B9000DBB23425DFF8DC6505FB03656D8C012D38
:109BA00040D1DBB23425DFF8CC6505FB0365ED8AD7
:109BB000ADB26D08002D35D1DBB23425DFF8B465C8
:109BC00005FB0365ED88ADB2AD08002D2AD1DBB2EF
:109BD0003425DFF8A06505FB036500266E84DBB243
:109BE0003425DFF8906505FB03650026C5F81A608B
:109BF000DBB23425DFF87C6505FB03650026C5F87C
:109C00001E60DBB23425DFF86C6505FB03652D892A
:109C10004FF6FF163540DBB23426DFF8587506FBE9
:109C200003763581F0BC7047F8B504000D001600CE
:109C30001F00FFB23800012802D0022806D00DE034
:109C4000290089B22000FFF7DBFE07E03200D2B224
:109C5000290089B22000FFF7F3FEFFE7F1BD0FB442
:109C600000B583B00598C00C10F003008DF800001B
:109C70000598000B10F07F008DF801000598000A90
:109C800010F00F008DF8020005988DF8030005987C
:109C9000400D8DF804009DF80400012840F0AF80CD
:109CA0009DF80000002818D19DF81A200DF11B0125
:109CB000DFF8C40400F03AFD9DF81A00DFF8BC1488
:109CC00008809DF802309DF80320DFF8B004018879
:109CD000DFF8A404FFF7A8FF91E09DF80000012839
:109CE00016D19DF81A200DF11B01DFF88C0400F04D
:109CF0001DFDDFF88C04012101709DF80100DFF8E3
:109D0000841408709DF81A00DFF87C14088076E04F
:109D10009DF80000022832D1DFF8640400780128A1
:109D20006DD19DF80100DFF85C140978491C884268
:109D300065D1DFF8540400889DF81A100818B0F5B2
:109D4000967F5CDC9DF81A200DF11B01DFF83804CA
:109D50000088DFF82434C01800F0E8FCDFF82404A1
:109D60000078401CDFF81C140870DFF81C04008821
:109D70009DF81A100818DFF8101408803FE09DF8CD
:109D8000000003283BD1DFF8F8030078012836D122
:109D90009DF80100DFF8EC130978491C88422ED1A8
:109DA000DFF8E40300889DF81A100818B0F5967FD4
:109DB00025DC9DF81A200DF11B01DFF8CC0300888B
:109DC000DFF8B433C01800F0B1FCDFF8BC03008842
:109DD0009DF81A100818E94908809DF802309DF88E
:109DE0000320E6480188E448FFF71EFFE44800210D
:109DF0000170E44800210170E3480021018007BCA4
:109E00005DF814FB2DE9F04385B005000E00914686
:109E100098460C9C00278DF802908DF803808DF8F1
:109E20000440B6B2092E14D200208DF800000020A4
:109E30008DF8010030008DF805009DF805202900FF
:109E40000DF1060000F072FC00A80FC8FFF785FDB9
:109E50004BE001208DF8000000208DF80100082063
:109E60008DF805009DF8052029000DF1060000F091
:109E70005DFC00A80FC8FFF770FD08200700BFB207
:109E800017F10800B6B2B04218DA02208DF80000CF
:109E90009DF80100401C8DF8010008208DF8050098
:109EA0009DF80520BFB279190DF1060000F03EFCC7
:109EB00000A80FC8FFF751FD0837E0E703208DF831
:109EC00000009DF80100401C8DF80100F01B8DF88A
:109ED00005009DF80520BFB279190DF1060000F0CC
:109EE00025FC00A80FC8FFF738FD05B0BDE8F083DA
:109EF000F0B585B09A4C002500270026A088E1889F
:109F000088421CD0A0880700BFB2781C618990FBF2
:109F1000F1F201FB1207BFB20E20216800FB07100F
:109F2000050000A829000E22FFF7D2FC00A80FC8E8
:109F3000FFF732FD0600F6B2042E00D0A78005B070
:109F4000F0BD2DE9F04F8FB004000D000026002772
:109F500002A8342101F05AFD5FF0000A5FF000080A
:109F60005FF0000900208DF804005FF0000B2078FE
:109F70000700A078E17850EA01208146E81C06003D
:109F800030008DF80800B6B2300A8DF809000120C3
:109F90008DF80A00002082461FFA8AFAADB2AA455F
:109FA0000CD21FFA8AFA02A81AEB00001FFA8AFAEA
:109FB0001AF80410C1701AF1010AEDE7002080467A
:109FC0001FFA88F81FFA89F9C8454BD21FFA88F89A
:109FD0000A2000FB084080791FFA88F80A2101FB5B
:109FE0000841C97950EA012050EA0B0B1FFA88F8A2
:109FF0000A2000FB0840007A1FFA88F80A2101FBBA
:10A000000841497A50EA012050EA0B0B1FFA88F800
:10A010000A2000FB0840807A1FFA88F80A2101FB19
:10A020000841C97A50EA012050EA0B0B1FFA88F860
:10A030000A2000FB0840007B1FFA88F80A2101FB78
:10A040000841497B50EA012050EA0B0B1FFA8BFBB9
:10A05000BBF1000F03D001208DF8040002E018F1DD
:10A060000108ADE79DF80400002808D0FFB2009772
:10A0700001230122310089B202A8FFF7C3FE0FB00D
:10A08000BDE8F08F30B587B004000025032005003F
:10A0900028008DF80400ADB2280A8DF805000320D1
:10A0A0008DF80600E4B2009401230122290089B250
:10A0B00001A8FFF7A7FE07B030BD70B504000D0082
:10A0C0000026E81E31490880002006002F4800883D
:10A0D000B6B2864207D2B6B23019C078B6B22C49B1
:10A0E0007054761CF2E749F2030000F04AFE70BD9E
:10A0F00071B585B00C00150000269DF814008DF890
:10A10000040020008DF80500A4B2200A8DF8060096
:10A110009DF815008DF807009DF816008DF80800D1
:10A120009DF817008DF8090006200600EDB2009595
:10A13000184803780322310089B201A8FFF762FEB4
:10A1400006B070BD1FB50024FF20009011480378B1
:10A150000222210089B201A8FFF754FE1FBD0000B2
:10A16000F8E00020D0D0002000640040AEE10020E4
:10A1700024E00020DC28002010DC0020A8E10020E2
:10A18000C0E10020C1E10020AAE10020ACE10020F4
:10A1900080DF0020C3E100200020D64908001E21F6
:10A1A0004181D54901600021C1808180704713B58C
:10A1B0000024D0480400E088401C618990FBF1F243
:10A1C00001FB1200A188884210D0E088401C618900
:10A1D00090FBF1F201FB1200E080E088062122688A
:10A1E00001FB002000A90622FFF772FB13BD00212E
:10A1F000C04801008888CA88904201D100200CE044
:10A200008888401C4A8990FBF2F302FB1300888087
:10A2100088880622096802FB0010704738B50024C0
:10A220000025B64800F03FFA00200400A4B2C82C74
:10A2300011D2A4B20E20B24900FB04104FF6FF71F8
:10A240000182A4B20E20AE4900FB04104FF6FF714C
:10A250004182641CEAE700200400A4B2C82C1AD290
:10A26000A4B23420A74900FB0410A11C01800020E7
:10A270000500ADB2032D0CD2ADB2A4B23420A14979
:10A2800000FB041010EB05104FF6FF7181806D1C70
:10A29000EFE7641CE1E79A480021C0F802109848F3
:10A2A0000021018096480021418131BD38B500244C
:10A2B000002500200400A4B2142C1BD2A4B24FF439
:10A2C000E670914900FB04100500A4B218208F49E4
:10A2D00000FB04102860A4B24FF4E6708A4900FB2A
:10A2E00004102968086128680480286800F0ECF9E7
:10A2F000641CE0E731BD0FB470B5002400250026D2
:10A3000000200400A4B2142C1CD2A4B24FF4E670B6
:10A310007D4900FB04100600A4B218207B4900FB15
:10A3200004103060A4B24FF4E670774900FB0410CB
:10A33000316808613068048030684069002801D0C5
:10A34000641CDFE7A4B2142C00F08A80A4B24FF49E
:10A35000E6706D4900FB041005994160A4B24FF40A
:10A36000E670694900FB0410BDF818100181002057
:10A370000500A4B24FF4E670634900FB04100089A5
:10A38000ADB2854210D2ADB2A4B24FF4E6705E49D0
:10A3900000FB041010EB4500ADB204A911EB450120
:10A3A000498941816D1CE4E7A4B24FF4E670564937
:10A3B00000FB04100021A0F8C611A4B24FF4E6700F
:10A3C000514900FB04100021A0F8A611A4B24FF4DB
:10A3D000E6704D4900FB04100021A0F8B411A4B2AE
:10A3E0004FF4E670484900FB04100021A0F8A011CA
:10A3F000A4B24FF4E670444900FB04104FF6FF711D
:10A40000A0F89A11A4B24FF4E6703F4900FB041083
:10A410000021A0F8C811A4B24FF4E6703A4900FB3D
:10A4200004100021A0F8AC11A4B24FF4E670364934
:10A4300000FB04100021A0F8BC11A4B24FF4E67098
:10A44000314900FB04100021A0F8BE11A4B24FF462
:10A45000E6702D4900FB04100168284800F037F928
:10A4600070BC5DF814FB010000220020020092B2D3
:10A47000C82A11D292B20E20214B00FB0230008A72
:10A4800089B2884206D192B20E201D4B00FB0230E9
:10A49000103002E0521CEAE700207047020092B23E
:10A4A000022A01D2002023E092B2C92A01D300205F
:10A4B0001EE089B2012906D192B23420114B00FB73
:10A4C0000230643814E089B2022906D192B23420F5
:10A4D0000C4B00FB023054380AE089B2032906D144
:10A4E00092B23420074B00FB0230443800E00020D9
:10A4F0007047000004E10020CCDE0020CCE000200A
:10A5000020A90020DC2800207C51002080D50020DC
:10A510000FB404994FF6FF7089B2814201D1002037
:10A520001CE0BDF8060089B2884201D1012015E087
:10A53000BDF8080089B2884201D102200EE0BDF8C2
:10A540000A0089B2884201D1032007E0BDF80C005F
:10A5500089B2884201D1042000E0002004B0704795
:10A560000200D2B2022A04D1C9B2012901D10220CB
:10A5700098E0D2B2022A04D1C9B2002901D1022046
:10A5800090E0D2B2022A04D1C9B2032901D1072036
:10A5900088E0D2B2022A04D1C9B2042901D108202C
:10A5A00080E0D2B2012A04D1C9B2022901D101202E
:10A5B00078E0D2B2012A04D1C9B2002901D1012028
:10A5C00070E0D2B2012A04D1C9B2032901D1052019
:10A5D00068E0D2B2012A04D1C9B2042901D106200F
:10A5E00060E0D2B2032A04D1C9B2022901D10A2003
:10A5F00058E0D2B2032A04D1C9B2012901D10920FD
:10A6000050E0D2B2032A04D1C9B2002901D10320FB
:10A6100048E0D2B2032A04D1C9B2042901D10320EF
:10A6200040E0D2B2042A04D1C9B2022901D10C20DF
:10A6300038E0D2B2042A04D1C9B2012901D10B20D9
:10A6400030E0D2B2042A04D1C9B2002901D10420D9
:10A6500028E0D2B2042A04D1C9B2032901D10420CE
:10A6600020E0D2B2002A04D1C9B2022901D10120CE
:10A6700018E0D2B2002A04D1C9B2012901D10220C6
:10A6800010E0D2B2002A04D1C9B2042901D10320BA
:10A6900008E0D2B2002A04D1C9B2032901D10420B2
:10A6A00000E00020704710F1080141604FF47A711A
:10A6B00001810021C16010F10801016110F1080160
:10A6C000416100210180704700214161704710B451
:10A6D0000B884FF47A749BB2A34202D144692200E2
:10A6E00009E010F108042200946824889BB2A34278
:10A6F00001D39268F8E794688C608C68E160CA6066
:10A70000916048610488641C048010BC70474169F2
:10A710008268C368D360C268836893604A68824273
:10A7200001D1C2684A6000224261704770B50400DE
:10A730000D001600320029002000FFF7C9F82000A4
:10A7400070BD10B450F8041B81B102681218001DCE
:10A7500050F8043BDC0744BFA9F10104E31852F8A8
:10A76000044B43F8044B091FF9D1EBE710BC7047C9
:10A7700010B50400964884420AD101215FF00070B0
:10A7800001F064FA00215FF0007001F05FFA09E067
:10A7900001215FF0806001F059FA00215FF08060D4
:10A7A00001F054FA10BD30B40200002000231468F8
:10A7B00034F002041460146854F001041460546806
:10A7C000E40705D44FF6FF74A34201D05B1CF6E703
:10A7D0005468E40702D4002420006DE08C79012C39
:10A7E00004D1146854F08004146003E0146834F059
:10A7F00080041460CC79012C04D1146854F0400416
:10A80000146003E0146834F0400414600C7A012CE6
:10A8100004D1146854F02004146003E0146834F088
:10A82000200414604C7A012C04D1146854F01004F4
:10A83000146003E0146834F0100414608C7A012C66
:10A8400004D1146854F00804146003E0146834F070
:10A8500008041460CC7A012C04D1146854F0040468
:10A86000146003E0146834F0040414608C78CD782C
:10A870002D0655EA84740D7954EA05444D7954EA5D
:10A8800005540D886D1E2C43D4611468640864005F
:10A890001460002423005468E40705D54FF6FF74C4
:10A8A000A34201D05B1CF6E75468E40702D50024FC
:10A8B000200001E001242000C0B230BC704710B479
:10A8C00000210122837A9A401100424A126852F014
:10A8D0000102404B1A60404A12688A433E4B1A609C
:10A8E000027B002A15D13D4A12688A433B4B1A600D
:10A8F000C288438853EA0242837A394C44F83320B1
:10A90000827A374B13EBC2028388048854EA0343EC
:10A910005360027B012A15D1304A12680A432F4B3B
:10A920001A600288438853EA0242837A2C4C44F826
:10A930003320827A2A4B13EBC2028388C48854EAFC
:10A9400003435360C27A002A05D1264A12688A431B
:10A95000244B1A6004E0234A12680A43214B1A6010
:10A960000289002A04D1204A12688A431E4B1A60C9
:10A970000289012A04D11C4A12680A431A4B1A6040
:10A98000427B012A04D1144A12680A43124B1A600E
:10A99000104A1268520852000E4B1A6010BC7047E1
:10A9A000002181710021C1710021017200214172D9
:10A9B000002181720021C172002181700021C170CB
:10A9C00003210171022141710121018070470000C2
:10A9D00000640040006600401C6600400C660040B9
:10A9E000406600400466004014660040D2B2002A6F
:10A9F00003D043690B43436102E043698B434361E6
:10AA0000704730B40200002093685B0102D5002338
:10AA100018000DE093681B0102D50123180007E020
:10AA20009368DB0002D50223180001E0042318001C
:10AA3000C0B2042875D0C0B212EB0013D3F8803135
:10AA400013F00103C0B212EB0014C4F880310B7A8A
:10AA5000002B0FD1C0B212EB0013D3F880310C6879
:10AA60004D7A55EA44542343C0B212EB0014C4F8A3
:10AA7000803110E0C0B212EB0013D3F880314C6883
:10AA80000D7A55EAC4044D7A2C432343C0B212EB2D
:10AA90000014C4F880318B7A13F00F038B72C0B2AC
:10AAA00012EB0013D3F884311B091B01C0B212EB67
:10AAB0000014C4F88431C0B212EB0013D3F884310F
:10AAC0008C7A2343C0B212EB0014C4F884318B7B20
:10AAD0004C7B240454EA03630C7B53EA0423CC7AB2
:10AAE0002343C0B212EB0014C4F888318B7C4C7C39
:10AAF000240454EA03630C7C53EA0423CC7B2343F1
:10AB0000C0B212EB0014C4F88C31C0B212EB0013C7
:10AB1000D3F8803153F00103C0B212EB0014C4F833
:10AB20008031C0B230BC7047C9B2002902D12022A6
:10AB3000C26001E020220261704770B504000D0080
:10AB40001600EDB214EB0510D0F8B00110F00400BF
:10AB50003072307A002807D1EDB214EB0510D0F82E
:10AB6000B001400D306006E0EDB214EB0510D0F8F6
:10AB7000B001C0087060EDB214EB0510D0F8B00160
:10AB800010F002007072EDB214EB0510D0F8B401B1
:10AB900010F00F00B072EDB214EB0510D0F8B40154
:10ABA000000AF074EDB214EB0510D0F8B801F072A1
:10ABB000EDB214EB0510D0F8B801000A3073EDB215
:10ABC00014EB0510D0F8B801000C7073EDB214EB63
:10ABD0000510D0F8B801000EB073EDB214EB0510FB
:10ABE000D0F8BC01F073EDB214EB0510D0F8BC0145
:10ABF000000A3074EDB214EB0510D0F8BC01000C63
:10AC00007074EDB214EB0510D0F8BC01000EB074F6
:10AC10002900C9B22000FFF787FF70BD0A00042A8F
:10AC200026D0052A19D0062A1AD0072A1CD0082AAD
:10AC300021D0202A22D0402A23D0B2F5807F23D0F1
:10AC4000B2F5007F25D0B2F5806F27D0B2F5803FF6
:10AC500029D0B2F5003F29D02BE00122826028E004
:10AC60004FF48072826024E05FF48032826020E0E2
:10AC70000822C2601DE01022C2601AE008220261B0
:10AC800017E01022026114E08269520852008261CA
:10AC90000FE0826932F0020282610AE0826932F0DA
:10ACA0000402826105E00822426002E01022426054
:10ACB000FFE77047DFF8FC0C006810F4E060DFF895
:10ACC000F81C0843DFF8EC1C0860BFF34F8FFEE769
:10ACD000DFF8E80C32210180DFF8E00C0021418030
:10ACE000DFF8D80C01210171DFF8D00C002141718F
:10ACF000DFF8C80C00218171DFF8C00C0021C171A0
:10AD0000DFF8B80C0021816070474181DFF8B02C7A
:10AD100002600022C2808280704710B4C288521C38
:10AD2000438992FBF3F403FB142283889A420BD0ED
:10AD3000C288521C438992FBF3F403FB1422C280A5
:10AD4000C288036823F8121010BC7047010088887D
:10AD5000CA88904201D100200BE08888401C4A89B3
:10AD600090FBF2F302FB130088808888096831F8B1
:10AD70001000704780B56421DFF8480CFFF7C5FF6D
:10AD800001BD10B50400210089B2DFF8380CFFF7CF
:10AD9000C4FF10BD80B5DFF82C0CFFF7D7FF02BD54
:10ADA00038B504000D00290089B22000FFF7C9F86A
:10ADB00031BD2DE9F84F04000025002600275FF083
:10ADC00000085FF000095FF0000A5FF0000B207AD6
:10ADD000617A50EA01200600B6B2332E80F0558128
:10ADE0002078617850EA0120A17850EA0140E178AA
:10ADF00050EA0160DFF8D01BC1F8020020796179C8
:10AE000050EA0120DFF8C01BC880A079E17950EA40
:10AE100001208246207A617A50EA0120DFF8A81BDF
:10AE2000C881DFF8980B8068DFF89C1BD1F802100E
:10AE3000884200F02A810A2081461FFA8AFABAF174
:10AE4000010F12D1DFF8800B008901280DD0DFF847
:10AE5000780B00218181DFF8700B00214181DFF840
:10AE6000680B00210181FFF7D9F9DFF85C0B00893D
:10AE70001FFA8AFA824500F00881DFF84C0BA0F82F
:10AE800008A0DFF8440B4089401CDFF83C1B4881D8
:10AE9000DFF8340B0089DFF8301BC988884214D1F1
:10AEA000DFF8240B4089DFF8201BC98888420CD1C9
:10AEB000DFF8140B4FF47A710180DFF80C0B0021DE
:10AEC0004181DFF8040B00210181DFF8FC0A808951
:10AED000070000200500ADB2B6B2B54280F0CB80CD
:10AEE000ADB20E201FFA89F900FB0590005DADB2EE
:10AEF0000E211FFA89F901FB05910919497850EAD9
:10AF00000120BFB20E21DFF8C02A01FB0721088211
:10AF1000ADB20E201FFA89F900FB05900019807868
:10AF2000ADB20E211FFA89F901FB05910919C97803
:10AF300050EA0120BFB20E21DFF88C2A01FB072165
:10AF40004882ADB20E201FFA89F900FB0590001966
:10AF50000079ADB20E211FFA89F901FB059109199B
:10AF6000497950EA0120BFB20E21DFF85C2A01FBCB
:10AF700007218882ADB20E201FFA89F900FB0590E7
:10AF800000198079ADB20E211FFA89F901FB0591F4
:10AF90000919C97950EA0120BFB20E21DFF8282A29
:10AFA00001FB0721C882ADB20E201FFA89F900FB10
:10AFB00005900019007AADB20E211FFA89F901FB44
:10AFC00005910919497A50EA0120BFB20E21DFF834
:10AFD000F82901FB07210883ADB20E201FFA89F979
:10AFE00000FB05900019807AADB20E211FFA89F995
:10AFF00001FB05910919C97A50EA0120BFB20E215F
:10B00000DFF8C42901FB07214883ADB20E201FFAE7
:10B0100089F900FB05900019007BADB20E211FFAE3
:10B0200089F901FB05910919497B50EA0120BFB25A
:10B030000E21DFF8942901FB07218883BFB20E207F
:10B04000DFF8841900FB0710818ABFB20E20DFF8F9
:10B05000782900FB0720408AFFF720FA8346BFB219
:10B060000E20DFF8641900FB0710008AABF800001F
:10B070007F1C6D1C2FE7DFF850098089DFF8481925
:10B08000C9890818DFF840198881BDE8F18F30B50B
:10B09000ADF5637D040000206F9000252078617875
:10B0A00050EA0120A17850EA0140E17850EA0160BD
:10B0B00070902079617950EA0120ADF8C401002038
:10B0C0000500BDF8C401ADB2854210D2ADB214EB9B
:10B0D00045008079ADB214EB4501C97950EA0120F1
:10B0E000ADB26FA911EB450148816D1CE9E76FA96D
:10B0F00084B068464FF4E672FEF7F7FB0FBCFFF72B
:10B10000FAF80DF5637D30BDF0B40022002400256F
:10B110000678477856EA0726877856EA0746C778BA
:10B1200056EA076634000679477956EA072635005D
:10B13000DFF8986833001E8832001E695E605E6822
:10B14000368892B296420BD05E68366931004E68FE
:10B15000A64201D1A1F8C6515E68B6685E60EEE70E
:10B16000F0BC70472DE9F04182B0040000250026B4
:10B1700000275FF000082078617850EA012080B253
:10B18000002802D101208DF801002078617850EA72
:10B19000012080B2012802D102208DF80100A078A0
:10B1A000E17850EA012080B2002802D102208DF817
:10B1B0000200A078E17850EA012080B2012802D193
:10B1C00001208DF80200A078E17850EA012080B2D9
:10B1D000022802D104208DF80200A078E17850EA1C
:10B1E000012080B2032802D103208DF80200012043
:10B1F0008DF803002079617950EA012007000020D2
:10B200000600B6B2BFB2BE4279D2B6B214EB460067
:10B210008079B6B214EB4601C97950EA0120804624
:10B22000404680B2FFF71FF90500002D65D0A888C1
:10B230008DF80000A88801281DD16888DFF89017D4
:10B2400011EB40006988DFF8882712EB410131F8E3
:10B25000041C491C20F8041C01208DF800006A8899
:10B26000D2B26888DFF8681711EB400030F8041C90
:10B270000098FEF73DFFA88802281DD16888DFF8F6
:10B28000541711EB40006988DFF8482712EB4101A1
:10B2900031F8041C491C20F8041C02208DF8000021
:10B2A0006A88D2B26888DFF82C1711EB400030F8BA
:10B2B000041C0098FEF71CFFA88803281DD168888D
:10B2C000DFF8141711EB40006988DFF80C2712EB48
:10B2D000410131F8041C491C20F8041C03208DF89E
:10B2E00000006A88D2B26888DFF8EC1611EB4000E3
:10B2F00030F8041C0098FEF7FBFE761C81E7BDE8E1
:10B30000F38130B40200002300241078AA2802D16F
:10B310005078AA2801D0002019E09079D57950EA18
:10B32000052089B2884201D0002010E0507A040044
:10B33000012003009BB289B2B1F10900834205DA12
:10B340009BB29818407A44405B1CF3E7012030BC64
:10B35000704738B504002500B5F8090041F60171C1
:10B36000884213D100F09EFC342000F008FDDFF885
:10B370006C0600F0ABFC042804D10021DFF85C0669
:10B3800000F0D6FC00F099FCFFF794FCB5F809003A
:10B3900041F20201401A16D0401E1DD0401E1FD09F
:10B3A000401E26D0801E2DD0801E34D047F6F87166
:10B3B000401A39D1DFF8040600210180DFF8FC05CE
:10B3C0000021418030E0E888B0F10B0189B214F12E
:10B3D0000B00FFF7E5FC27E0E07AFEF753FE23E0E1
:10B3E00014F10B00FFF7E5FC49F20400FFF7C9FC7C
:10B3F0001AE014F10B00FFF74AFE49F20500FFF7CF
:10B40000C0FC11E014F10B00FFF77EFE49F20700CB
:10B41000FFF7B7FC08E014F10B00FFF7A3FE49F2B9
:10B420000900FFF7AEFCFFE731BD38B504000D00A1
:10B4300029882000FFF765FF002802D1002028801E
:10B4400004E02000FFF785FF0020288031BD10B404
:10B4500092B2130A5340AA240470AA24447001240F
:10B4600084700024C47000240471002444710B24EF
:10B4700084710024C4710372427292B2140A8472FD
:10B480000B240C8010BC704770B4002300240025EE
:10B4900013263400AA260670AA2646700126867056
:10B4A0000026C67000260671002646718471A4B27B
:10B4B000260AC6710372427292B2160A8672DFF8C9
:10B4C000FC643679C672DFF8F46476790673DFF8C7
:10B4D000EC64B6794673DFF8E464F6798673DFF8D6
:10B4E000DC64B668C673DFF8D464B668360A0674DE
:10B4F000DFF8C864B668360C4674DFF8C064B66816
:10B50000360E86740026330000263500ADB2A4B294
:10B51000B4F10906B54205DAADB22E18767A734059
:10B520006D1CF3E703720C8070BC7047F0B4DFF859
:10B53000B06436880B363400427292B2160A8672B4
:10B5400000263500ADB2A4B2B4F10B06B54208DA5C
:10B55000ADB22E18ADB2DFF88C74EF5DF7726D1CD2
:10B56000F0E7467A330001263500ADB2A4B2B4F15B
:10B570000906B54205DAADB22E18767A73406D1C15
:10B58000F3E7AA260670AA264670012686700026D2
:10B59000C67000260671002646718471A4B2260A80
:10B5A000C67103720C80F0BC7047F0B4DFF83864E9
:10B5B0003678DFF834747F7856EA07260A277E4308
:10B5C0000D363400427292B2160A86720026350099
:10B5D000ADB2A4B2B4F10B06B54208DAADB22E1882
:10B5E000ADB2DFF80474EF5DF7726D1CF0E7467AD8
:10B5F000330001263500ADB2A4B2B4F10906B5425C
:10B6000005DAADB22E18767A73406D1CF3E7AA26E0
:10B610000670AA264670012686700026C67000268F
:10B620000671002646718471A4B2260AC67103729F
:10B630000C80F0BC704770B40023002400250D2658
:10B640003400AA260670AA264670012686700026B7
:10B65000C67000260671002646718471A4B2260ABF
:10B66000C6710372427292B2160A8672DFF858638C
:10B670003689C672DFF850633689B6B2360A067369
:10B680000026330000263500ADB2A4B2B4F109069D
:10B69000B54205DAADB22E18767A73406D1CF3E729
:10B6A00003720C8070BC70472DE9F04704000D0058
:10B6B000160000275FF000085FF000095FF0000A45
:10B6C000FEF795FD8246BAF1000F02D100202880D6
:10B6D00048E011208046AA202070AA206070012036
:10B6E000A0700020E070002020710020607184F8BC
:10B6F00006801FFA88F85FEA1820E07127726672E8
:10B70000B6B2300AA072DAF80000E072DAF800008F
:10B71000000A2073DAF80000000C6073DAF8000009
:10B72000000EA073BAF80400E073BAF8040080B207
:10B73000000A207400200700002081461FFA89F9C2
:10B740001FFA88F8B8F10900814508DA1FFA89F96B
:10B7500019EB0400407A474019F10109EEE727721E
:10B76000A5F80080BDE8F08710B5A04890F8D00794
:10B7700000281BD1FFF70EFB0400A4B2200041F209
:10B780000101401A29D0C01F32D0801E46D047F692
:10B79000F871401A0BD0401E14D0401E33D0401E0A
:10B7A00005D0801E03D0801E01D042E041E022007F
:10B7B00092B28F498F48FFF74AFE8C48012180F8EA
:10B7C000D01736E0220092B289498A48FFF7AEFED0
:10B7D0008648012180F8D0172BE0220092B28449DC
:10B7E0008448FFF751FE8148012180F8D01720E0FE
:10B7F000220092B27E497F48FFF7D7FE7B480121A5
:10B8000080F8D01715E0220092B279497948FFF705
:10B8100012FF7648012180F8D0170AE0220092B288
:10B8200073497448FFF740FF7048012180F8D01732
:10B83000FFE710BDF0B585B00024002500266E4856
:10B840000088012840F0A7806C480088401C6B49A4
:10B8500008806A4800880328C0F09D80674800215E
:10B860000180674800880400A4B2C82C76D200A8E2
:10B87000A4B20E21634A01FB042110310E22FEF70F
:10B8800027F8BDF800004FF6FF71884264D0BDF87C
:10B890000000002860D0BDF80410BDF80200FEF7DB
:10B8A000FDFD0700B6B20A204F4900FB0610BDF8A7
:10B8B00000108170B6B20A204B4900FB0610BDF89B
:10B8C000001089B2090AC170B6B20A20464900FBCD
:10B8D000061079880171B6B20A20434900FB0610B0
:10B8E000798889B2090A4171B6B20A203E4900FB43
:10B8F0000610B9888171B6B20A203B4900FB0610D8
:10B90000B98889B2090AC171B6B20A20364900FB6A
:10B910000610D7F806100172B6B20A20324900FBB1
:10B920000610D7F80610090A4172B6B20A202E494D
:10B9300000FB0610D7F80610090C8172B6B20A2077
:10B94000294900FB0610D7F80610890BC1726D1C3F
:10B95000761CADB25A2D01D2641C85E7A4B2C82C66
:10B960000CD12548002101802548002101801E4876
:10B9700005701D48ADB2290A417008E0601C2049DD
:10B980000880194805701848ADB2290A417041F283
:10B990000800FFF7F6F905B0F0BD10B500241A480D
:10B9A0000400A088E188884203D041F20A00FFF732
:10B9B000E8F910BD0CED00E00400FA051CE10020E0
:10B9C00004DE002010E1002020B40020CCE00020A4
:10B9D00060D70020F0D8002080DA002000F80008AE
:10B9E000ACE1002080DF0020E8CC002020BF002058
:10B9F000F4C6002008C30020B2E10020B6E1002018
:10BA0000B0E1002020A9002004E10020002200F085
:10BA10000DBA50F8041B61B150F8042BD30744BF92
:10BA2000A9F101039A18002342F8043B091FFAD137
:10BA3000EFE77047F0B50021002200230024002525
:10BA4000002600275FF0000CDFF824E2DEF800E0BB
:10BA50001EF00C0E71468E46BEF1000F06D0BEF1F0
:10BA6000040F08D0BEF1080F0AD062E0DFF808E248
:10BA7000C0F800E061E0DFF804E2C0F800E05CE05C
:10BA8000DFF8ECE1DEF800E01EF4701E7246DFF82D
:10BA9000E0E1DEF800E01EF4803E7346920C0D2AD1
:10BAA00001D0921C02E05FF0060E7246002B06D118
:10BAB000DFF8CCE10EFB02FEC0F800E038E0DFF872
:10BAC000B4E1DEF800E01EF4803E7546DFF8A4E144
:10BAD000DEF800E01EF00F0E1EF1010E7646002D7E
:10BAE00008D1DFF898E1BEFBF6FE02FB0EFEC0F8BF
:10BAF00000E01DE0DFF87CE1DEF800E0CEF3031E9D
:10BB00001EF1010E7746DFF86CE1DEF800E0CEF3BF
:10BB1000032E1EF1020EF446DFF860E1BEFBF7FED5
:10BB20000CFB0EFEBEFBF6FE02FB0EFEC0F800E0B4
:10BB300003E0DFF844E1C0F800E0DFF834E1DEF8CC
:10BB400000E01EF0F00E71460909DFF838E111F847
:10BB50000EE07446D0F800E03EFA04FEC0F804E0BF
:10BB6000DFF80CE1DEF800E01EF4E06E7146090A31
:10BB7000DFF810E111F80EE07446D0F804E03EFA68
:10BB800004FEC0F808E0DFF8E8E0DEF800E01EF4AC
:10BB9000605E7146C90ADFF8ECE011F80EE0744609
:10BBA000D0F804E03EFA04FEC0F80CE0DFF8C0E094
:10BBB000DEF800E01EF4404E7146890BDFF8C8E065
:10BBC00011F80EE07446D0F80CE0BEFBF4FEC0F8AD
:10BBD00010E0F0BDC9B2002905D02C4A126802431A
:10BBE0002A4B1A6004E0294A12688243274B1A60E4
:10BBF0007047C9B2002905D0254A12680243244B78
:10BC00001A6004E0224A12688243214B1A6070478E
:10BC1000C9B2002905D01F4A126802431D4B1A60A1
:10BC200004E01C4A126882431A4B1A607047C9B27A
:10BC3000002905D0184A12680243174B1A6004E025
:10BC4000154A12688243144B1A607047C9B2002922
:10BC500005D0124A12680243104B1A6004E00F4AE2
:10BC6000126882430D4B1A6070470D490870704787
:10BC7000041002402C10024000127A0040787D012E
:10BC800000093D00000000201000002014100240B8
:10BC9000181002401C1002402810024010100240F0
:10BCA00007100240DFF81401DFF814110160DFF81B
:10BCB0000C01DFF8101101607047DFF80C0100681B
:10BCC00050F08000DFF800110860704738B50400BC
:10BCD000042540F6FF7000F07DF80500EDB2042D5C
:10BCE00023D1DFF8E400006850F00200DFF8D8103C
:10BCF0000860DFF8D8000460DFF8CC00006850F07E
:10BD00004000DFF8C410086040F6FF7000F062F8F1
:10BD10000500EDB2052D08D0DFF8AC00006841F653
:10BD2000FD710840DFF8A01008602800C0B232BDE5
:10BD300070B504000D0004260F2000F04BF806003B
:10BD4000F6B2042E18D1DFF88000006850F0010030
:10BD5000DFF87410086025800F2000F03BF8060023
:10BD6000F6B2052E08D0DFF86000006841F6FE71DB
:10BD70000840DFF8541008603000C0B270BD1449AC
:10BD800080B208607047042011490968C90702D5CC
:10BD9000012108000FE00E490968490702D5022178
:10BDA000080008E00A490968C90602D5032108000D
:10BDB00001E004210800C0B27047000004200240E6
:10BDC00023016745AB89EFCD1020024014200240CB
:10BDD0000C20024038B504000425FFF7D4FF05000D
:10BDE000EDB2012D08D1002C06D000F00CF8FFF7C1
:10BDF000CAFF0500641EF3E7002C01D105200500F1
:10BE00002800C0B232BD81B000200090FF20009019
:10BE10000098002803D00098401E0090F8E701B079
:10BE20007047000062F30F2262F31F4200B5130057
:10BE300096469446103928BFA0E80C50FAD85FEA1D
:10BE4000417C28BF0CC048BF40F8042BC90728BF5D
:10BE500020F8022B48BF00F8012B00BD2DE9F04F60
:10BE600083B004000D006068DFF8F81B0860DFF89D
:10BE7000F40B0068008801F005FAC0F3032080B2DB
:10BE8000616811EB8000DFF8E01B0860DFF8D40B7D
:10BE90000068008801F0F6F9C0F3032080B280004A
:10BEA00000B2414209B2200001F044FB002802D157
:10BEB0002089142803D2200001F08BFB4DE22900D9
:10BEC000DFF8A00B0068103001F000FD002810D151
:10BED0005FF0704001F0E9F983465FF0604001F0E7
:10BEE000E4F9DFF8801B096809691BEA0101814256
:10BEF00003D1200001F06DFB2FE2DFF86C0B00682E
:10BF0000808901F0BFF980B2000B81465FFA89F9A0
:10BF10007FF0030000FB09F109B2200001F00AFBE9
:10BF2000002803D0200001F054FB16E2DFF8380BA4
:10BF30000068008801F0A6F9DFF82C1B096808806A
:10BF4000DFF8240B0068408801F09CF9DFF8181B2B
:10BF500009684880DFF8100B0068406801F0A5F917
:10BF6000DFF8041B09684860DFF8001B0860DFF891
:10BF7000F80A0068806801F098F9DFF8EC1A09689F
:10BF80008860DFF8EC1A0860DFF8DC0A0068C08916
:10BF900001F078F9DFF8D01A0968C881DFF8C80A1B
:10BFA0000068808901F06EF910F03F00DFF8C41AD4
:10BFB0000870DFF8C00A00780321084201D0012090
:10BFC00000E0002021894018DFF8AC1A088000202A
:10BFD0000700DFF8A80A00680600002E34D0307C85
:10BFE0000028307C0A28307C0128308CDFF8781A51
:10BFF00009680988884224D1308BDFF86C1A0968F7
:10C00000498888421DD17068DFF8581A0968C968E4
:10C01000884216D13068DFF84C1A096809698842ED
:10C020000FD1F068B042002F08D0F068F860DFF858
:10C030004C0A0068F060DFF8440A0660F068B0421D
:10C0400002E03700F668C8E7002E65D1DFF8300A55
:10C0500000680600002E26D0307C0A28308CDFF8DD
:10C06000081A0968098888421BD1308BDFF8F81953
:10C0700009684988884214D17068DFF8E8190968AE
:10C08000C96888420DD13068DFF8D8190968096994
:10C09000884206D1300000F005FA200001F099FA3C
:10C0A0005BE1F668D6E700200700DFF8D8090068F2
:10C0B0008046B8F1000F2FD0B8F1000F0BD0D8F8A0
:10C0C0000000002807D0D8F80000DFF898190968A8
:10C0D000096988421CD1B8F81800DFF88C19096882
:10C0E0004988884214D1002F0BD0D8F80C00F86092
:10C0F000DFF890090068C8F80C00DFF88809C0F87C
:10C100000080404600F02BF9200001F062FA24E1A3
:10C110004746D8F80C80CCE7002E00F0F380DFF81B
:10C12000680900210160DFF8600921898181DFF859
:10C13000580961688160DFF850094460DFF84809F8
:10C14000DFF8241909680161DFF840090021016066
:10C15000DFF83C0900210170F06F002820D0D6F8EC
:10C160008400002808D00023F26F31007069D6F8EF
:10C1700084C0E047824607E000208246F06F002836
:10C1800002D0F06F01F025FA4FFA8AFABAF1000FE7
:10C1900002D10020F06703E0200001F01AFADCE091
:10C1A000DFF8F0080660300000F0A3F98246DFF8FF
:10C1B000E408002101607FF004004FFA8AFA82450A
:10C1C00000F09180DFF8C8080078000713D5D6F892
:10C1D0009000002805D07FF005017069D6F8902006
:10C1E00090473100DFF8940801F072FF310002201F
:10C1F00002F04BF877E0DFF898080078C00609D520
:10C200003100DFF8780801F063FF3100022002F00E
:10C210003CF868E000208246B6F86C0001280ED396
:10C22000D6F88000002808D0B6F86C20310070697C
:10C23000D6F880309847824601E000208246DFF839
:10C240004C080068002832D0DFF828080078000782
:10C2500009D5DFF838080068407B50F00100DFF8AE
:10C260002C1809684873D6F8840000280AD00023E7
:10C27000DFF81808026831007069D6F884C0E0471A
:10C2800082460BE000208246DFF8000800680028A4
:10C2900004D0DFF8F807006801F09BF94FFA8AFA3A
:10C2A000BAF1000F03D0DFF8E4070068F067DFF8A9
:10C2B000E007007880060ED5D6F88400002808D064
:10C2C0000023002231007069D6F884C0E04782461E
:10C2D00001E0002082464FFA8AFABAF1000F02D13B
:10C2E000300002F08FFADFF8A0074068002834D051
:10C2F000DFF89407406801F06CF9DFF88C07002143
:10C3000041602AE0DFF860070068808900F0BAFF2A
:10C3100040071FD4DFF85007006800880190DFF85D
:10C320004807006840880090DFF83807006810F17F
:10C330000C03DFF83007006810F11002DFF82C075B
:10C340000068DFF8341709880918DFF82407006847
:10C3500002F004FC200001F03CF9BDE8F78F7CB549
:10C360000400DFF810070078C00621D5DFF8F806D2
:10C37000006800880190DFF8F006006840880090AF
:10C38000DFF8E006006810F10C03DFF8D80600685B
:10C3900010F11002DFF8D4060068DFF8DC16098817
:10C3A0000918DFF8CC060068401C02F0D7FB77E0E4
:10C3B000DFF8C0060078800772D5607C01F00FFEC0
:10C3C0000500002D02D15FF0FF306AE0DFF894062F
:10C3D00000681030002801D1002003E0DFF8840657
:10C3E000006800692860208B2883DFF878060068E1
:10C3F0000C30002801D1002003E0DFF86806006857
:10C40000C0686860DFF86006006800882884032040
:10C410002874DFF858060068401C6862686AE862A1
:10C42000DFF844060068C089A5F85C00B5F85C0038
:10C43000A5F85400DFF834060068401E28666069DD
:10C440006861E069E861208940F29911084028811B
:10C45000DFF828060068E860DFF82006056028009D
:10C4600000F08DFE291D288F01F09CFE28870120F9
:10C47000019000200090122300220021280001F0EA
:10C480008BFF060076B2002E06D00021280001F0B6
:10C49000F1FA300040B204E0280002F0B3F900E005
:10C4A000002076BD10B50400DFF8C0050068DFF895
:10C4B000C81509880818616A401A012807DBDFF8E7
:10C4C000AC050068DFF8B015098808186062DFF86D
:10C4D000A8050088012808D394F8220050F0020033
:10C4E00084F82200200002F08DF9200002F08AF981
:10C4F00010BD2DE9FC410400002600200700DFF8F4
:10C5000074050078400735D5207C022808D1DFF873
:10C5100060050068A16D884214D10120060011E079
:10C52000DFF848050068616A401A00280AD4DFF87D
:10C530003C050068616A401A218D401A012801DA21
:10C5400001200600F6B2002E12D0207C0028DFF871
:10C550004005007850F00800DFF83415087094F8B2
:10C56000220010F0FE0084F822007FF0050077E240
:10C57000002075E2DFF8FC040078800710D5207CED
:10C5800002280DD0207C03280AD094F8220050F015
:10C59000020084F82200200002F034F900205FE25B
:10C5A000DFF8AC0C00682063002084F89D002000B8
:10C5B00000F0E5FD207C022814D0C0F05082042851
:10C5C00000F02581C0F0AB80062800F0A181C0F00A
:10C5D0003181082800F0E781C0F01981092800F0B6
:10C5E0002A823CE2DFF86C0C007810F0120012286E
:10C5F0006FD1A06F0069406800F057FEDFF870143B
:10C600000968401C814264D1B4F86E00401CA4F853
:10C610006E00DFF858040068401C6062606AE062E7
:10C62000DFF84C040068E064DFF83C040068C0896F
:10C63000A4F85C00DFF834040068401E2066042083
:10C640002074211D208F01F0ADFD2087208F0A214D
:10C650004843A4F85400B4F85200012803D1208FB5
:10C6600080B2400000E0208FA4F85200B4F87000BF
:10C670000128B4F87000401EA4F87000A06F0500F7
:10C680002868A067A06F002803D15FF0FF30E08624
:10C6900004E00020E086002084F84A00280001F031
:10C6A00029FCD4F88800002807D000222100606906
:10C6B000D4F888309847070001E00020070094F87C
:10C6C000220050F0020084F82200200002F09AF8C4
:10C6D00024E0DFF8800B0078C0061FD5DFF8880360
:10C6E000006800880190DFF88003006840880090AF
:10C6F000DFF87003006810F10C03DFF868030068CE
:10C7000010F11002DFF864030068DFF86C13098889
:10C710000918DFF85C03006802F020FA9FE1DFF8F7
:10C72000340B0078C00663D5DFF844030068E16C81
:10C73000401A401E002841D4CD480068A16D401A1F
:10C7400001283BDA04202074E0690028E069002811
:10C7500006D0002221006069E3699847070001E0E4
:10C76000002007007FB2002F06D00121200001F039
:10C7700081F97FF0040073E1B4F852008046200094
:10C7800000F08AF91FFA88F8B8F1010F03D1208F61
:10C7900080B2400000E0208FA4F85200BC4800782E
:10C7A000800633D594F8220050F0020084F822006D
:10C7B000200002F027F80720207427E0AA4800682C
:10C7C00000880190A848006840880090A54800684B
:10C7D00010F10C03A348006810F11002A348006890
:10C7E000A54909880918A248006802F0B7F90DE0C8
:10C7F000DFF8600A0078800708D59C480068616A05
:10C80000491E884202D1200002F029FA27E12000C7
:10C8100000F042F99E48007880060AD594F822007C
:10C8200050F0020084F82200200001F0EBFF072006
:10C83000207414E1200000F02FF99548007880065C
:10C8400059D5DFF8100A0078C00648D58848006836
:10C85000A16D884243D194F8220050F0020084F880
:10C860002200200001F0CEFF200001F014FC8348DC
:10C870000068A04205D181480068C0687F4908600F
:10C8800023E0DFF8D4097D4909680160DFF8C809B1
:10C890000068002819D0DFF8C0090068C0680028C7
:10C8A0000BD0DFF8B4090068C068A04205D1DFF8FA
:10C8B000A8090068E168C16007E0DFF89C0900682A
:10C8C000C068DFF894190860E0E70020E0600A2003
:10C8D00020746B480068E0606948046017E094F8D1
:10C8E000220050F0020084F82200200001F08AFFAC
:10C8F000082020740BE0DFF85C090078C00606D53C
:10C900005B480068A16D884201D106202074A6E032
:10C91000200000F0C1F85E480078800642D594F807
:10C92000220050F0020084F82200200001F06AFF8B
:10C93000200001F0B0FB51480068A04205D14F48EB
:10C940000068C0684D49086023E0DFF80C094B49D6
:10C9500009680160DFF800090068002819D0DFF8D5
:10C96000F8080068C06800280BD0DFF8EC08006801
:10C97000C068A04205D1DFF8E0080068E168C16046
:10C9800007E0DFF8D4080068C068DFF8CC1808605A
:10C99000E0E70020E0600A20207439480068E06089
:10C9A000374804605BE0200000F076F8DFF8A40868
:10C9B0000078C0063ED52E480068A16D884239D166
:10C9C000200001F068FB2D480068A04205D12B48EB
:10C9D0000068C0682949086023E0DFF87C0827491F
:10C9E00009680160DFF870080068002819D0DFF8D6
:10C9F00068080068C06800280BD0DFF85C08006891
:10CA0000C068A04205D1DFF850080068E168C16045
:10CA100007E0DFF844080068C068DFF83C180860E9
:10CA2000E0E70020E0600A20207415480068E0601C
:10CA30001348046013E0200000F02EF8DFF814081B
:10CA40000078C0060AD50A480068A16D884205D161
:10CA50000F48007850F010000D490870FFE70020E3
:10CA6000BDE8F68190E100208CE1002094E10020F7
:10CA700098E10020C8E10020BEE1002080E1002014
:10CA800084E100207CE10020E4E000209CE1002023
:10CA9000C9E10020A0E100202DE9F84F04005FF07B
:10CAA000000ADFF8B0070078C00640F1F181B4F861
:10CAB0005C00616E08180090206EDFF8A01709680E
:10CAC000401A00281AD4206EDFF8901709688842AF
:10CAD00006D1606EDFF888170968401A00280DD467
:10CAE000606EDFF87C170968884220D1B4F85C00DA
:10CAF000DFF870170968C989884218D2DFF864071F
:10CB00000068C089A4F85C00DFF850070068206660
:10CB1000DFF84C0700686066B4F85C00012806D3B3
:10CB200094F89C00012802D3002084F89C00E06C5B
:10CB3000DFF82C17096888425FD10020A4F86C0048
:10CB4000606EB4F85C1008180099884240F01681B5
:10CB500094F85000401C84F8500094F850000328CA
:10CB6000C0F00C81A06F002800F0088194F822002A
:10CB7000400731D4200002F072F8B4F85C00B4F839
:10CB80005210884207D2B4F85C00022190FBF1F009
:10CB9000A4F8540006E0B4F85200022190FBF1F032
:10CBA000A4F85400B4F85400218FB0EB410F04DA1C
:10CBB000208F80B24000A4F85400B4F85400218FB4
:10CBC000032202FB0100A4F8520094F8220050F066
:10CBD000040084F82200D1E0B4F85200B4F85210F6
:10CBE000228F511889B2884280F0C880B4F8520070
:10CBF000218F0818A4F85200C0E0DFF8640600682E
:10CC0000E16C401A401E002800F1B580DFF85006A4
:10CC10000068A16D401A012880F2AD8094F82200CE
:10CC2000400709D594F8220010F0FB0084F8220098
:10CC3000B4F85400A4F85200002084F84A00B4F973
:10CC40004400B4F9461011EBE000A4F84800DFF806
:10CC500010060068E16C401AA4F86C00B4F86E008D
:10CC6000B4F86C100818A4F86E00002084F8500086
:10CC7000DFF8EC050068E064207C042826D3B4F8D3
:10CC80005200B4F8541088420FD2B4F85200B4F8ED
:10CC90005210228F511889B2884217D2B4F852002C
:10CCA000218F0818A4F8520010E0B4F85200218F28
:10CCB000228F5143B4F8522091FBF2F10818B4F8D6
:10CCC000521080B2814201D2A4F85200A06F002815
:10CCD00044D0A06F0069406800F0E7FA8346A06F77
:10CCE0000069808900F0CEFAC00709D4A06F0069FE
:10CCF000808900F0C7FAC0F3400010F0010000E0A6
:10CD00000120A16F8989401810EB0B00DFF8501546
:10CD10000968401A012821DAA06F0500A06F006899
:10CD2000A067686800F09BFCB4F8701080B2814284
:10CD3000B4F870B0686800F092FCBBEB0000A4F897
:10CD40007000280001F0D6F8B4F870000028BDD0BB
:10CD5000A06F002801D1606F0028B7E7A06F0028FE
:10CD600003D15FF0FF30E08601E00020E086002084
:10CD700084F8340002E00020A4F86C00606F002802
:10CD80004BD0606F0069406800F08FFA8346606F97
:10CD90000069808900F076FAC00709D4606F0069E5
:10CDA000808900F06FFAC0F3400010F0010000E04D
:10CDB0000120DFF8AC140968B1EB0B01626F9289B6
:10CDC0008018081A002828D4DFF894040068A16DA0
:10CDD000401A012821DA606F0500606F0068606703
:10CDE000686800F03CFCB4F8701080B28142B4F87E
:10CDF00070B0686800F033FCBBEB0000A4F8700072
:10CE0000280001F077F8B4F870000028B6D0A06FC1
:10CE1000002801D1606F0028B0E7E06B002837D010
:10CE2000206CDFF83C140968401A002830D5DFF880
:10CE300020040068E16B401A80460FFA88F8B4F9C4
:10CE40004400B8EBE008B4F8440018EB0000A4F884
:10CE500044000FFA88F8B8F1000F03D50FFA88F8EC
:10CE6000D8F100080FFA88F8B4F94600B8EBA0082A
:10CE7000B4F8460018EB0000A4F84600B4F94400EA
:10CE8000B4F9461011EBE000A4F848000020E0637C
:10CE9000DFF8D40300880128C0F05581606ADFF80C
:10CEA000BC130968401A401E00285AD4606ADFF893
:10CEB000AC130968401ADFF8B0130988401A401C07
:10CEC00001284EDA606ADFF894130968401A0700F7
:10CED000DFF8980340680600DFF8900340680028F8
:10CEE00047F6FF708742DFF8840340684089B84204
:10CEF0001DDADFF8780340680089B842DFF86C0378
:10CF000040680089C01B81467089B84207DA708981
:10CF10003F1AA6F80890002070813668F4E779423D
:10CF200009B2300000F006FB002807D006E0794285
:10CF300009B2CE48406800F0FDFA0028CB4871687D
:10CF40008160CA488089616AC44A1268891A401A95
:10CF5000C6498881606AC1490860C4490969486056
:10CF60000EE0BE480068616A401A002808D594F8AF
:10CF7000220050F0020084F82200200001F042FC60
:10CF8000B6480068616A401A002800F1D280B348B0
:10CF90000068616A401A218D401A401C012880F205
:10CFA000C880606AAD490968884240F0B8800120B5
:10CFB0008246AE480069808900F064F9C00709D450
:10CFC000AA480069808900F05DF9C0F3400010F0C4
:10CFD000010000E00120A54989894018A249088084
:10CFE000208DA1490988884253D2A04800698089D0
:10CFF00000F048F9C00717D59C480069808900F007
:10D0000041F9834699480069808900F03BF94FF661
:10D01000C07111EA0B0110F03E00084380B200F02D
:10D020002BF99249096988819048218D81818F4827
:10D030000069808900F026F9800704D58B48808933
:10D04000401E8A498881894881898848406800F063
:10D050002AFA86480069808900F014F9C00709D4CB
:10D0600082480069808900F00DF9C0F3400010F09B
:10D07000010000E001207D49898940187A49088033
:10D0800076480068784909880818616A228D511825
:10D090008842724800687449098808186062208DC7
:10D0A000714909888842208D6F490988401A208576
:10D0B000200000F03AFD6D4840680089012806D341
:10D0C0006A4840686A4908606848002141606748CA
:10D0D0000069808900F0D6F8C00705D5654800785A
:10D0E00050F020006349087094F82200C0070FD563
:10D0F00094F8220010F0FE0084F8220094F8220038
:10D1000050F0020084F82200200001F07BFB05E0D3
:10D1100094F8220050F0010084F822002BE094F8EB
:10D12000220050F0020084F82200200001F06AFB87
:10D1300021E094F8220050F0020084F82200200040
:10D1400001F060FB17E045480068616A401A00285A
:10D1500008D442480068616A401A218D401A401C78
:10D16000012808DB94F8220050F0020084F8220025
:10D17000200001F047FB5046C0B2BDE8F28F2DE918
:10D18000F84304003748006800F214008046354830
:10D190000068808900F076F880B2000BC0B20628E3
:10D1A00053D330480068808900F06CF880B2000BDF
:10D1B000401F8000060000200500ADB2B6B2B542A7
:10D1C00043D2ADB215F8080081465FFA89F9B9F18A
:10D1D000000F04D0B9F1020F04D001D328E034E0ED
:10D1E0006D1CEAE7ADB215EB08004078042804D1C5
:10D1F000B6B2ADB2281D864200DA26E0ADB215EB1C
:10D2000008008078ADB215EB0801C97851EA00201A
:10D21000070040F2B550BFB2874202D2BFB2002F22
:10D2200002D140F2B45000E0380020872D1DC4E741
:10D23000ADB215EB08004078002806D0280080B277
:10D2400010EB080040784519B7E7BDE8F18300000E
:10D2500074E10020C8E1002088E1002094E1002072
:10D2600098E100208CE10020BEE10020E4E00020F5
:10D270009CE10020C9E1002080B2010A51EA0020AF
:10D2800080B2704710B50400200080B2FFF7F4FFB1
:10D2900010BD10F47F41090251EA0061020A12F444
:10D2A0007F42114351EA1060704710B5040020001E
:10D2B000FFF7EFFF10BD2DE9F84F04008B46150076
:10D2C00000208246E4B2002C05D0022C07D004D303
:10D2D000032C07D007E01AF1140A1AF1140A1AF104
:10D2E0000E0A02E001E00020DBE0EDB2002D00F0CC
:10D2F0009380022D00F0BC80C0F0BA80032D40F076
:10D30000C980082000F0A7FF0600002E01D10020F0
:10D31000C7E03573002030601FFA8AFA1AEB060066
:10D320001030C01C80088000706070680421B0FB61
:10D33000F1F202FB1102002AA6F808B01FFA8BFBDB
:10D3400040F2DC501FFA8AFA1AF1030131F00301AE
:10D35000401A834501DA584607E040F2DC501AF1E2
:10D3600003014FF6FC721140401A708106F2EC5036
:10D37000718972688918884240F2DC501FFA8AFA73
:10D380001AF1030131F00301401A01280120F08154
:10D39000B0461FFA8BFB7089BBEB00008146B9F1E8
:10D3A000010F38DB082000F056FF0700002F04D1E2
:10D3B000300000F00EF9002073E03D730020787318
:10D3C00000203860C8F800704FF6FF708145A7F85C
:10D3D0000890484640F2DC5180B2884201D248466B
:10D3E00001E040F2DC50788117F110007860786835
:10D3F0000421B0FBF1F202FB1102002A06F2EC500C
:10D4000071897268891888420120F8817889B9EB9E
:10D410000009B846C3E73FE01AF113004FF6FC716C
:10D4200008401FFA8BFB1BF1030131F003010818C0
:10D4300080B201F0E5FD0600002E01D1002030E0B1
:10D440001FFA8AFA1AEB06001030C01C8008800010
:10D450007060A6F808B0A6F80AB0002030603573F6
:10D4600070680421B0FBF1F202FB1102002A13E004
:10D47000072000F0F0FE0600002E01D1002010E091
:10D4800000207060A6F808B0A6F80AB0002030604E
:10D49000357301E0002004E00120F081002070736A
:10D4A0003000BDE8F28F2DE9F04104000D00002CA2
:10D4B000207B032807D0207B012804D0207B002874
:10D4C00001D0207B02282089ADB2854230D2ADB296
:10D4D0002089281A80462F0026007089BFB2B842E2
:10D4E0000BD270893F1A4FF6FF708045308918EBD8
:10D4F000000030813668002EEFE7307B00280CD129
:10D500007089BFB2874208D07068801B391889B211
:10D51000300001F0CBFC0600002E7781708930814D
:10D520003068002802D0306800F053F800203060E6
:10D53000BDE8F08170B40200002A09B2002901D0D0
:10D54000002A01D1002042E009B2002909D509B220
:10D55000484205005089ADB2A84201D2012036E010
:10D5600000E00D00107B0300506804009BB2002B0C
:10D5700002D09BB2032B0CD109B2484256688019E5
:10D580005060506812F11006B04219D25460012068
:10D590001DE09BB2022B02D09BB2012B0ED109B22F
:10D5A000002909D55089ADB2A84205D309B2484235
:10D5B00056688019506003E0012008E0012006E071
:10D5C000508908185081108908181081002070BCFB
:10D5D00070472DE9F0410400002C02D1002C0020FE
:10D5E0003BE0207B002807D0207B012804D0207B53
:10D5F000022801D0207B032800200700002C2AD01D
:10D60000E0890128E089401EE08180461FFA88F801
:10D61000B8F1000F1CD120680600207B0500ADB2D8
:10D62000032D04D12100082000F02FFE0DE0ADB243
:10D63000012D02D0ADB2022D04D12100072000F04F
:10D6400024FE02E0200001F008FC7F1C3400D5E736
:10D6500000200400D2E73800C0B2BDE8F08101002C
:10D6600000221000002902D0401C0968FAE7C0B26D
:10D670007047002802D0C189491CC181704710B48D
:10D68000002801D0002900D113E002001368002B0C
:10D6900005D013890C89E31813811268F6E7138902
:10D6A0005489A3421368002B13890C89E318138152
:10D6B000116010BC704738B504000D00290020002F
:10D6C000FFF7DDFF2800FFF7D4FF31BD2DE9F04162
:10D6D00004000D0000275FF00008002C05D0002D8D
:10D6E00003D020892989884202D27FF0090052E0C4
:10D6F000002C6089BFB2C01B69891FFA88F8B1EBA2
:10D700000801884204DB6889B0EB0800060002E0EB
:10D710006089C01B0600B6B232001FFA88F868683C
:10D7200018EB0001BFB260683818FCF7FFFFF7196B
:10D7300016EB08086089BFB2B8426089BFB2874261
:10D7400002D100200700246868891FFA88F8404544
:10D7500068891FFA88F8804502D3002080462D682A
:10D76000002D09D068892989884205D128680028B8
:10D7700002D07FF008000EE0002C09D060892189DA
:10D78000884205D12068002802D07FF0080002E01E
:10D79000002DADD10020BDE8F0812DE9F84F040047
:10D7A0000D0016001F005FF0000B002C01D10020BF
:10D7B00042E0002D01D100203EE000208146002CF7
:10D7C00001D0002D01D1002036E0A046B6B2002ED7
:10D7D00030D0B8F1000F2DD0BFB2002F08D0B8F86C
:10D7E0000A00BFB2874203D3B8F80A003F1A1EE00E
:10D7F000B8F80A00C01B8246B6B21FFA8AFA56452C
:10D8000000D2B2461FFA8AFA5246BFB2D8F80400D4
:10D8100039181FFA89F919EB0500FCF787FF1AEB95
:10D820000B0B1AEB0909B6EB0A0600200700D8F823
:10D830000080CBE7584680B2BDE8F28F2DE9F04773
:10D8400004000D001600B1465FF0000A002C01D163
:10D85000002038E0002D01D1002034E0002C05D05C
:10D86000002D03D02089B6B2B04202D27FF0090069
:10D8700029E027001FFA89F9B9F1000F18D0002F0D
:10D88000C84678891FFA88F8404501D278898046D1
:10D890001FFA88F842461FFA8AFA1AEB05017868DF
:10D8A000FCF744FFB9EB080918EB0A0A3F68E1E707
:10D8B0001FFA89F9B9F1000F04D11FFA8AFAB6B23A
:10D8C000B245FFD00020BDE8F087000030B4020070
:10D8D00010680300D843002801D0002B01D101209B
:10D8E0001CE091F82A00800701D4002016E0486867
:10D8F000834201D1002011E010688C6820404C6800
:10D900008D682C40A04208D1886833EA00008C68FA
:10D91000E443A04201D1012000E0002030BC704768
:10D920000000000080B500F09BFADFF8480800789E
:10D93000401CDFF840180870C00701D500F012F94C
:10D9400001BD38B50400207C00280AD0012845D04C
:10D95000022851D003285DD0042866D007286FD054
:10D9600079E000200500DFF810080068A04207D128
:10D97000DFF804080068C068DFF8FC17086024E0DE
:10D98000DFF8F807DFF8F01709680160DFF8EC0747
