:020000040800F2
:10000000D8E5002085300108892F01088B2F0108D1
:100010008D2F01088F2F0108912F0108000000008B
:10002000000000000000000000000000932F010805
:10003000952F010800000000972F0108992F010853
:10004000B5300108B9300108BD300108C1300108E0
:10005000C5300108C9300108CD300108D130010890
:10006000D5300108D9300108DD300108E130010840
:10007000E5300108E9300108ED300108F1300108F0
:10008000F5300108F9300108FD300108013101089F
:10009000C12F0108093101080D3101081131010892
:1000A00015310108193101081D31010821310108FC
:1000B00025310108293101082D31010831310108AC
:1000C00035310108393101083D310108413101085C
:1000D00045310108493101084D310108513101080C
:1000E00055310108593101085D3101080000000057
:1000F0000000000000000000000000000000000000
:1001000000000000000000006131010865310108B5
:10011000693101086D31010871310108753101083B
:10012000793101087D3101088131010885310108EB
:1001300089310108A12F0108913101089531010889
:10014000993101089D310108A1310108A53101084B
:108000002DE9F04F83B004000D006068DFF8F81B25
:108010000860DFF8F40B0068008801F005FAC0F38F
:10802000032080B2616811EB8000DFF8E01B08607C
:10803000DFF8D40B0068008801F0F6F9C0F30320E4
:1080400080B2800000B2414209B2200001F044FB3E
:10805000002802D12089142803D2200001F08BFBD4
:108060004DE22900DFF8A00B0068103001F016FD8A
:10807000002810D15FF0704001F0E9F983465FF00D
:10808000604001F0E4F9DFF8801B096809691BEA28
:108090000101814203D1200001F06DFB2FE2DFF8E6
:1080A0006C0B0068808901F0BFF980B2000B81463B
:1080B0005FFA89F97FF0030000FB09F109B22000A3
:1080C00001F00AFB002803D0200001F054FB16E267
:1080D000DFF8380B0068008801F0A6F9DFF82C1BE8
:1080E00009680880DFF8240B0068408801F09CF9DB
:1080F000DFF8181B09684880DFF8100B006840683B
:1081000001F0A5F9DFF8041B09684860DFF8001BDF
:108110000860DFF8F80A0068806801F098F9DFF875
:10812000EC1A09688860DFF8EC1A0860DFF8DC0AEE
:108130000068C08901F078F9DFF8D01A0968C881B1
:10814000DFF8C80A0068808901F06EF910F03F007E
:10815000DFF8C41A0870DFF8C00A0078032108426B
:1081600001D0012000E0002021894018DFF8AC1A7E
:10817000088000200700DFF8A80A00680600002E2B
:1081800034D0307C0028307C0A28307C0128308CA8
:10819000DFF8781A09680988884224D1308BDFF823
:1081A0006C1A0968498888421DD17068DFF8581A2E
:1081B0000968C968884216D13068DFF84C1A096826
:1081C000096988420FD1F068B042002F08D0F068EA
:1081D000F860DFF84C0A0068F060DFF8440A0660D7
:1081E000F068B04202E03700F668C8E7002E65D1BB
:1081F000DFF8300A00680600002E26D0307C0A28FE
:10820000308CDFF8081A0968098888421BD1308B46
:10821000DFF8F81909684988884214D17068DFF8D6
:10822000E8190968C96888420DD13068DFF8D819A3
:1082300009680969884206D1300000F005FA20007B
:1082400001F099FA5BE1F668D6E700200700DFF855
:10825000D80900688046B8F1000F2FD0B8F1000FA0
:108260000BD0D8F80000002807D0D8F80000DFF8BD
:1082700098190968096988421CD1B8F81800DFF814
:108280008C1909684988884214D1002F0BD0D8F87E
:108290000C00F860DFF890090068C8F80C00DFF8FF
:1082A0008809C0F80080404600F02BF9200001F05A
:1082B00062FA24E14746D8F80C80CCE7002E00F0A3
:1082C000F380DFF8680900210160DFF86009218987
:1082D0008181DFF8580961688160DFF850094460E6
:1082E000DFF84809DFF8241909680161DFF840095F
:1082F00000210160DFF83C0900210170F06F0028C7
:1083000020D0D6F88400002808D00023F26F310076
:108310007069D6F884C0E047824607E000208246B4
:10832000F06F002802D0F06F01F025FA4FFA8AFAB8
:10833000BAF1000F02D10020F06703E0200001F045
:108340001AFADCE0DFF8F0080660300000F0A3F96C
:108350008246DFF8E408002101607FF004004FFA54
:108360008AFA824500F09180DFF8C808007800079B
:1083700013D5D6F89000002805D07FF0050170696C
:10838000D6F8902090473100DFF8940801F088FF7C
:108390003100022002F061F877E0DFF898080078F9
:1083A000C00609D53100DFF8780801F079FF310007
:1083B000022002F052F868E000208246B6F86C0015
:1083C00001280ED3D6F88000002808D0B6F86C201B
:1083D00031007069D6F880309847824601E000206D
:1083E0008246DFF84C080068002832D0DFF8280801
:1083F0000078000709D5DFF838080068407B50F0A6
:108400000100DFF82C1809684873D6F884000028AA
:108410000AD00023DFF81808026831007069D6F826
:1084200084C0E04782460BE000208246DFF8000867
:108430000068002804D0DFF8F807006801F09BF915
:108440004FFA8AFABAF1000F03D0DFF8E4070068A8
:10845000F067DFF8E007007880060ED5D6F88400D4
:10846000002808D00023002231007069D6F884C0AB
:10847000E047824601E0002082464FFA8AFABAF1CC
:10848000000F02D1300002F0A5FADFF8A007406823
:10849000002834D0DFF89407406801F06CF9DFF869
:1084A0008C07002141602AE0DFF8600700688089BE
:1084B00000F0BAFF40071FD4DFF8500700680088BB
:1084C0000190DFF84807006840880090DFF838071F
:1084D000006810F10C03DFF83007006810F110029B
:1084E000DFF82C070068DFF8341709880918DFF86F
:1084F0002407006802F01AFC200001F03CF9BDE8F6
:10850000F78F7CB50400DFF810070078C00621D58E
:10851000DFF8F806006800880190DFF8F0060068D0
:1085200040880090DFF8E006006810F10C03DFF8E7
:10853000D806006810F11002DFF8D4060068DFF8F2
:10854000DC1609880918DFF8CC060068401C02F028
:10855000EDFB77E0DFF8C0060078800772D5607C1D
:1085600001F025FE0500002D02D15FF0FF306AE02A
:10857000DFF8940600681030002801D1002003E0E5
:10858000DFF88406006800692860208B2883DFF804
:10859000780600680C30002801D1002003E0DFF8E5
:1085A00068060068C0686860DFF8600600680088D8
:1085B000288403202874DFF858060068401C68628D
:1085C000686AE862DFF844060068C089A5F85C00C4
:1085D000B5F85C00A5F85400DFF834060068401ECA
:1085E000286660696861E069E861208940F2991154
:1085F00008402881DFF828060068E860DFF82006D8
:108600000560280000F08DFE291D288F01F0B2FEC4
:1086100028870120019000200090122300220021D1
:10862000280001F0A1FF060076B2002E06D000213E
:10863000280001F007FB300040B204E0280002F0FF
:10864000C9F900E0002076BD10B50400DFF8C005D0
:108650000068DFF8C81509880818616A401A0128FF
:1086600007DBDFF8AC050068DFF8B01509880818EB
:108670006062DFF8A8050088012808D394F822007A
:1086800050F0020084F82200200002F0A3F920003C
:1086900002F0A0F910BD2DE9FC41040000260020E5
:1086A0000700DFF874050078400735D5207C0228E4
:1086B00008D1DFF860050068A16D884214D101205F
:1086C000060011E0DFF848050068616A401A0028DA
:1086D0000AD4DFF83C050068616A401A218D401A0F
:1086E000012801DA01200600F6B2002E12D0207C0B
:1086F0000028DFF84005007850F00800DFF8341556
:10870000087094F8220010F0FE0084F822007FF038
:10871000050077E2002075E2DFF8FC0400788007AE
:1087200010D5207C02280DD0207C03280AD094F894
:10873000220050F0020084F82200200002F04AF9E2
:1087400000205FE2DFF8AC0C00682063002084F8B2
:108750009D00200000F0E5FD207C022814D0C0F030
:108760005082042800F02581C0F0AB80062800F07C
:10877000A181C0F03181082800F0E781C0F01981A3
:10878000092800F02A823CE2DFF86C0C007810F037
:10879000120012286FD1A06F0069406800F057FEE8
:1087A000DFF870140968401C814264D1B4F86E008F
:1087B000401CA4F86E00DFF858040068401C60629A
:1087C000606AE062DFF84C040068E064DFF83C04B3
:1087D0000068C089A4F85C00DFF834040068401E1B
:1087E000206604202074211D208F01F0C3FD208706
:1087F000208F0A214843A4F85400B4F852000128FD
:1088000003D1208F80B2400000E0208FA4F85200F6
:10881000B4F870000128B4F87000401EA4F870008D
:10882000A06F05002868A067A06F002803D15FF043
:10883000FF30E08604E00020E086002084F84A0053
:10884000280001F03FFCD4F88800002807D000225F
:1088500021006069D4F888309847070001E00020C3
:10886000070094F8220050F0020084F82200200053
:1088700002F0B0F824E0DFF8800B0078C0061FD5C6
:10888000DFF88803006800880190DFF88003006843
:1088900040880090DFF87003006810F10C03DFF8E7
:1088A0006803006810F11002DFF864030068DFF865
:1088B0006C1309880918DFF85C03006802F036FAC7
:1088C0009FE1DFF8340B0078C00663D5DFF844037E
:1088D0000068E16C401A401E002841D4CD48006871
:1088E000A16D401A01283BDA04202074E0690028B9
:1088F000E069002806D0002221006069E3699847FA
:10890000070001E0002007007FB2002F06D0012100
:10891000200001F097F97FF0040073E1B4F85200F1
:108920008046200000F08AF91FFA88F8B8F1010F9C
:1089300003D1208F80B2400000E0208FA4F85200C5
:10894000BC480078800633D594F8220050F002002D
:1089500084F82200200002F03DF80720207427E070
:10896000AA48006800880190A848006840880090E4
:10897000A548006810F10C03A348006810F110022C
:10898000A3480068A54909880918A248006802F0B0
:10899000CDF90DE0DFF8600A0078800708D59C4823
:1089A0000068616A491E884202D1200002F03FFA45
:1089B00027E1200000F042F99E48007880060AD5A1
:1089C00094F8220050F0020084F82200200002F007
:1089D00001F80720207414E1200000F02FF99548D9
:1089E0000078800659D5DFF8100A0078C00648D50F
:1089F00088480068A16D884243D194F8220050F065
:108A0000020084F82200200001F0E4FF200001F0C1
:108A10002AFC83480068A04205D181480068C068EC
:108A20007F49086023E0DFF8D4097D4909680160C7
:108A3000DFF8C8090068002819D0DFF8C00900680D
:108A4000C06800280BD0DFF8B4090068C068A042F5
:108A500005D1DFF8A8090068E168C16007E0DFF828
:108A60009C090068C068DFF894190860E0E70020FE
:108A7000E0600A2020746B480068E0606948046088
:108A800017E094F8220050F0020084F82200200041
:108A900001F0A0FF082020740BE0DFF85C090078EB
:108AA000C00606D55B480068A16D884201D106204A
:108AB0002074A6E0200000F0C1F85E48007880062F
:108AC00042D594F8220050F0020084F822002000E1
:108AD00001F080FF200001F0C6FB51480068A04271
:108AE00005D14F480068C0684D49086023E0DFF8B1
:108AF0000C094B4909680160DFF80009006800288B
:108B000019D0DFF8F8080068C06800280BD0DFF83B
:108B1000EC080068C068A04205D1DFF8E0080068F2
:108B2000E168C16007E0DFF8D4080068C068DFF8DA
:108B3000CC180860E0E70020E0600A202074394883
:108B40000068E060374804605BE0200000F076F8E1
:108B5000DFF8A4080078C0063ED52E480068A16D55
:108B6000884239D1200001F07EFB2D480068A042E8
:108B700005D12B480068C0682949086023E0DFF868
:108B80007C08274909680160DFF870080068002840
:108B900019D0DFF868080068C06800280BD0DFF83B
:108BA0005C080068C068A04205D1DFF85008006882
:108BB000E168C16007E0DFF844080068C068DFF8DA
:108BC0003C180860E0E70020E0600A2020741548A7
:108BD0000068E0601348046013E0200000F02EF805
:108BE000DFF814080078C0060AD50A480068A16DAD
:108BF000884205D10F48007850F010000D490870E8
:108C0000FFE70020BDE8F6819CD5002098D5002024
:108C1000A0D50020A4D50020D4D50020CAD500209E
:108C20008CD5002090D5002088D50020F0D40020DD
:108C3000A8D50020D5D50020ACD500202DE9F84FCF
:108C400004005FF0000ADFF8B0070078C00640F1CA
:108C5000F181B4F85C00616E08180090206EDFF8B6
:108C6000A0170968401A00281AD4206EDFF8901760
:108C70000968884206D1606EDFF888170968401AD3
:108C800000280DD4606EDFF87C170968884220D177
:108C9000B4F85C00DFF870170968C989884218D2F7
:108CA000DFF864070068C089A4F85C00DFF85007AB
:108CB00000682066DFF84C0700686066B4F85C0066
:108CC000012806D394F89C00012802D3002084F8E0
:108CD0009C00E06CDFF82C17096888425FD1002007
:108CE000A4F86C00606EB4F85C1008180099884213
:108CF00040F0168194F85000401C84F8500094F81D
:108D000050000328C0F00C81A06F002800F00881FB
:108D100094F82200400731D4200002F088F8B4F81B
:108D20005C00B4F85210884207D2B4F85C0002210B
:108D300090FBF1F0A4F8540006E0B4F852000221D0
:108D400090FBF1F0A4F85400B4F85400218FB0EB7C
:108D5000410F04DA208F80B24000A4F85400B4F828
:108D60005400218F032202FB0100A4F8520094F862
:108D7000220050F0040084F82200D1E0B4F8520040
:108D8000B4F85210228F511889B2884280F0C880FE
:108D9000B4F85200218F0818A4F85200C0E0DFF8A0
:108DA00064060068E16C401A401E002800F1B5809E
:108DB000DFF850060068A16D401A012880F2AD80EE
:108DC00094F82200400709D594F8220010F0FB0027
:108DD00084F82200B4F85400A4F85200002084F86B
:108DE0004A00B4F94400B4F9461011EBE000A4F8CD
:108DF0004800DFF810060068E16C401AA4F86C0027
:108E0000B4F86E00B4F86C100818A4F86E000020D6
:108E100084F85000DFF8EC050068E064207C04284A
:108E200026D3B4F85200B4F8541088420FD2B4F8E4
:108E30005200B4F85210228F511889B2884217D2CA
:108E4000B4F85200218F0818A4F8520010E0B4F8CA
:108E50005200218F228F5143B4F8522091FBF2F13E
:108E60000818B4F8521080B2814201D2A4F852001E
:108E7000A06F002844D0A06F0069406800F0E7FAB6
:108E80008346A06F0069808900F0CEFAC00709D43C
:108E9000A06F0069808900F0C7FAC0F3400010F0AD
:108EA000010000E00120A16F8989401810EB0B0040
:108EB000DFF850150968401A012821DAA06F050073
:108EC000A06F0068A067686800F09BFCB4F87010A1
:108ED00080B28142B4F870B0686800F092FCBBEBDD
:108EE0000000A4F87000280001F0ECF8B4F870005D
:108EF0000028BDD0A06F002801D1606F0028B7E71F
:108F0000A06F002803D15FF0FF30E08601E0002071
:108F1000E086002084F8340002E00020A4F86C0011
:108F2000606F00284BD0606F0069406800F08FFAD6
:108F30008346606F0069808900F076FAC00709D423
:108F4000606F0069808900F06FFAC0F3400010F094
:108F5000010000E00120DFF8AC140968B1EB0B015F
:108F6000626F92898018081A002828D4DFF89404C8
:108F70000068A16D401A012821DA606F0500606F5A
:108F800000686067686800F03CFCB4F8701080B25C
:108F90008142B4F870B0686800F033FCBBEB0000AD
:108FA000A4F87000280001F08DF8B4F870000028D3
:108FB000B6D0A06F002801D1606F0028B0E7E06B49
:108FC000002837D0206CDFF83C140968401A0028CC
:108FD00030D5DFF820040068E16B401A80460FFAB4
:108FE00088F8B4F94400B8EBE008B4F8440018EB92
:108FF0000000A4F844000FFA88F8B8F1000F03D578
:109000000FFA88F8D8F100080FFA88F8B4F946008A
:10901000B8EBA008B4F8460018EB0000A4F846002E
:10902000B4F94400B4F9461011EBE000A4F848008C
:109030000020E063DFF8D40300880128C0F05581E8
:10904000606ADFF8BC130968401A401E00285AD431
:10905000606ADFF8AC130968401ADFF8B0130988BA
:10906000401A401C01284EDA606ADFF89413096840
:10907000401A0700DFF8980340680600DFF8900305
:109080004068002847F6FF708742DFF88403406895
:109090004089B8421DDADFF8780340680089B84299
:1090A000DFF86C0340680089C01B81467089B842B4
:1090B00007DA70893F1AA6F8089000207081366898
:1090C000F4E7794209B2300000F006FB002807D02F
:1090D00006E0794209B2CE48406800F0FDFA002867
:1090E000CB4871688160CA488089616AC44A126845
:1090F000891A401AC6498881606AC1490860C44912
:10910000096948600EE0BE480068616A401A00289C
:1091100008D594F8220050F0020084F822002000C4
:1091200001F058FCB6480068616A401A002800F156
:10913000D280B3480068616A401A218D401A401CF1
:10914000012880F2C880606AAD490968884240F011
:10915000B88001208246AE480069808900F064F939
:10916000C00709D4AA480069808900F05DF9C0F3FE
:10917000400010F0010000E00120A5498989401855
:10918000A2490880208DA1490988884253D2A0486D
:109190000069808900F048F9C00717D59C4800692C
:1091A000808900F041F9834699480069808900F080
:1091B0003BF94FF6C07111EA0B0110F03E00084375
:1091C00080B200F02BF99249096988819048218D7D
:1091D00081818F480069808900F026F9800704D5D5
:1091E0008B488089401E8A498881894881898848BE
:1091F000406800F02AFA86480069808900F014F976
:10920000C00709D482480069808900F00DF9C0F3D5
:10921000400010F0010000E001207D4989894018DC
:109220007A49088076480068784909880818616A90
:10923000228D5118884272480068744909880818BC
:109240006062208D714909888842208D6F490988A4
:10925000401A2085200000F050FD6D4840680089CC
:10926000012806D36A4840686A49086068480021B6
:10927000416067480069808900F0D6F8C00705D5CD
:109280006548007850F020006349087094F8220087
:10929000C0070FD594F8220010F0FE0084F82200D9
:1092A00094F8220050F0020084F82200200001F01F
:1092B00091FB05E094F8220050F0010084F82200B0
:1092C0002BE094F8220050F0020084F822002000E5
:1092D00001F080FB21E094F8220050F0020084F8B5
:1092E0002200200001F076FB17E045480068616A23
:1092F000401A002808D442480068616A401A218D4B
:10930000401A401C012808DB94F8220050F00200AB
:1093100084F82200200001F05DFB5046C0B2BDE899
:10932000F28F2DE9F84304003748006800F214007A
:10933000804635480068808900F076F880B2000BDE
:10934000C0B2062853D330480068808900F06CF81A
:1093500080B2000B401F8000060000200500ADB267
:10936000B6B2B54243D2ADB215F8080081465FFAF5
:1093700089F9B9F1000F04D0B9F1020F04D001D37B
:1093800028E034E06D1CEAE7ADB215EB0800407848
:10939000042804D1B6B2ADB2281D864200DA26E018
:1093A000ADB215EB08008078ADB215EB0801C978B5
:1093B00051EA0020070040F2B550BFB2874202D206
:1093C000BFB2002F02D140F2B45000E03800208735
:1093D0002D1DC4E7ADB215EB08004078002806D07B
:1093E000280080B210EB080040784519B7E7BDE8C7
:1093F000F183000080D50020D4D5002094D5002032
:10940000A0D50020A4D5002098D50020CAD50020E2
:10941000F0D40020A8D50020D5D5002080B2010AC4
:1094200051EA002080B2704710B50400200080B2DD
:10943000FFF7F4FF10BD10F47F41090251EA00610B
:10944000020A12F47F42114351EA1060704710B5CE
:1094500004002000FFF7EFFF10BD2DE9F84F0400D6
:109460008B46150000208246E4B2002C05D0022C69
:1094700007D004D3032C07D007E01AF1140A1AF11D
:10948000140A1AF10E0A02E001E00020DBE0EDB25E
:10949000002D00F09380022D00F0BC80C0F0BA8057
:1094A000032D40F0C980082000F0BDFF0600002E0B
:1094B00001D10020C7E03573002030601FFA8AFA1E
:1094C0001AEB06001030C01C8008800070607068C5
:1094D0000421B0FBF1F202FB1102002AA6F808B049
:1094E0001FFA8BFB40F2DC501FFA8AFA1AF10301D3
:1094F00031F00301401A834501DA584607E040F293
:10950000DC501AF103014FF6FC721140401A7081D1
:1095100006F2EC50718972688918884240F2DC507A
:109520001FFA8AFA1AF1030131F00301401A0128E7
:109530000120F081B0461FFA8BFB7089BBEB000065
:109540008146B9F1010F38DB082000F06CFF0700FD
:10955000002F04D1300000F00EF9002073E03D73BD
:109560000020787300203860C8F800704FF6FF7054
:109570008145A7F80890484640F2DC5180B2884205
:1095800001D2484601E040F2DC50788117F110002A
:10959000786078680421B0FBF1F202FB1102002A26
:1095A00006F2EC5071897268891888420120F881AE
:1095B0007889B9EB0009B846C3E73FE01AF1130018
:1095C0004FF6FC7108401FFA8BFB1BF1030131F0D1
:1095D0000301081880B201F00BFE0600002E01D135
:1095E000002030E01FFA8AFA1AEB06001030C01C87
:1095F000800880007060A6F808B0A6F80AB00020C5
:109600003060357370680421B0FBF1F202FB110287
:10961000002A13E0072000F006FF0600002E01D10B
:10962000002010E000207060A6F808B0A6F80AB08C
:1096300000203060357301E0002004E00120F0815B
:10964000002070733000BDE8F28F2DE9F041040076
:109650000D00002C207B032807D0207B012804D09C
:10966000207B002801D0207B02282089ADB28542D2
:1096700030D2ADB22089281A80462F00260070898A
:10968000BFB2B8420BD270893F1A4FF6FF708045C7
:10969000308918EB000030813668002EEFE7307B10
:1096A00000280CD17089BFB2874208D07068801B37
:1096B000391889B2300001F0F1FC0600002E7781E4
:1096C000708930813068002802D0306800F053F88B
:1096D00000203060BDE8F08170B40200002A09B2B9
:1096E000002901D0002A01D1002042E009B200295E
:1096F00009D509B2484205005089ADB2A84201D24D
:10970000012036E000E00D00107B030050680400EB
:109710009BB2002B02D09BB2032B0CD109B2484262
:10972000566880195060506812F11006B04219D284
:10973000546001201DE09BB2022B02D09BB2012B92
:109740000ED109B2002909D55089ADB2A84205D37E
:1097500009B2484256688019506003E0012008E0D1
:10976000012006E0508908185081108908181081DE
:10977000002070BC70472DE9F0410400002C02D19C
:10978000002C00203BE0207B002807D0207B012814
:1097900004D0207B022801D0207B03280020070072
:1097A000002C2AD0E0890128E089401EE081804613
:1097B0001FFA88F8B8F1000F1CD120680600207B42
:1097C0000500ADB2032D04D12100082000F045FEB4
:1097D0000DE0ADB2012D02D0ADB2022D04D12100B9
:1097E000072000F03AFE02E0200001F02EFC7F1C72
:1097F0003400D5E700200400D2E73800C0B2BDE84D
:10980000F081010000221000002902D0401C0968EC
:10981000FAE7C0B27047002802D0C189491CC18153
:10982000704710B4002801D0002900D113E00200D5
:109830001368002B05D013890C89E3181381126873
:10984000F6E713895489A3421368002B13890C8906
:10985000E3181381116010BC704738B504000D0087
:1098600029002000FFF7DDFF2800FFF7D4FF31BDFE
:109870002DE9F04104000D0000275FF00008002CE6
:1098800005D0002D03D020892989884202D27FF09B
:10989000090052E0002C6089BFB2C01B69891FFA21
:1098A00088F8B1EB0801884204DB6889B0EB080056
:1098B000060002E06089C01B0600B6B232001FFA43
:1098C00088F8686818EB0001BFB26068381801F0CA
:1098D0002FFDF71916EB08086089BFB2B8426089FE
:1098E000BFB2874202D100200700246868891FFAAE
:1098F00088F8404568891FFA88F8804502D300201F
:1099000080462D68002D09D068892989884205D1B3
:109910002868002802D07FF008000EE0002C09D053
:1099200060892189884205D12068002802D07FF013
:10993000080002E0002DADD10020BDE8F0812DE946
:10994000F84F04000D0016001F005FF0000B002C04
:1099500001D1002042E0002D01D100203EE0002096
:109960008146002C01D0002D01D1002036E0A04618
:10997000B6B2002E30D0B8F1000F2DD0BFB2002FFC
:1099800008D0B8F80A00BFB2874203D3B8F80A007B
:109990003F1A1EE0B8F80A00C01B8246B6B21FFA92
:1099A0008AFA564500D2B2461FFA8AFA5246BFB228
:1099B000D8F8040039181FFA89F919EB050001F0ED
:1099C000B7FC1AEB0B0B1AEB0909B6EB0A060020E1
:1099D0000700D8F80080CBE7584680B2BDE8F28F88
:1099E0002DE9F04704000D001600B1465FF0000AB3
:1099F000002C01D1002038E0002D01D1002034E0FE
:109A0000002C05D0002D03D02089B6B2B04202D27E
:109A10007FF0090029E027001FFA89F9B9F1000F4A
:109A200018D0002FC84678891FFA88F8404501D21F
:109A3000788980461FFA88F842461FFA8AFA1AEB9C
:109A40000501786801F074FCB9EB080918EB0A0A03
:109A50003F68E1E71FFA89F9B9F1000F04D11FFA55
:109A60008AFAB6B2B245FFD00020BDE8F08710B444
:109A700050F8041B81B102681218001D50F8043B15
:109A8000DC0744BFA9F10104E31852F8044B43F882
:109A9000044B091FF9D1EBE710BC704730B402004A
:109AA00010680300D843002801D0002B01D1012009
:109AB0001CE091F82A00800701D4002016E04868D5
:109AC000834201D1002011E010688C6820404C686E
:109AD0008D682C40A04208D1886833EA00008C6869
:109AE000E443A04201D1012000E0002030BC7047D7
:109AF0000000000080B500F09BFADFF8480800780D
:109B0000401CDFF840180870C00701D500F012F9BA
:109B100001BD38B50400207C00280AD0012845D0BA
:109B2000022851D003285DD0042866D007286FD0C2
:109B300079E000200500DFF810080068A04207D196
:109B4000DFF804080068C068DFF8FC17086024E04C
:109B5000DFF8F807DFF8F01709680160DFF8EC07B5
:109B60000068002819D0DFF8E4070068C068002802
:109B70000BD0DFF8D8070068C068A04205D1DFF835
:109B8000CC070068E168C16007E0DFF8C007006843
:109B9000C068DFF8B8170860E0E70020E060210047
:109BA000022000F05AFC0020040040E000200500E4
:109BB0002100DFF89C0700F073FB2100032000F078
:109BC0004CFC0020040032E0002005002100DFF8FA
:109BD000840700F065FB2100022000F03EFC00201D
:109BE000040024E00121200000F0AEFC05006DB26D
:109BF000002D01D10520207419E00121200000F082
:109C0000A3FC05006DB2002D01D1052020740EE0EB
:109C10000121200000F098FC05006DB2002D01D15B
:109C20000920207403E00020050000200400002C1F
:109C300005D06DB2002D02D1200000F0CBFE28002F
:109C400040B232BD2DE9F04F85B004000D00207CFC
:109C50000A2809D12100DFF8000700F021FB2100CC
:109C6000022000F0FAFB45E0A06D0600606A0700E4
:109C7000002C01D1002000E020680290201D002867
:109C800001D1002000E060680390208B8146208C89
:109C90008046D4F890008246606983462100DFF850
:109CA000B40600F0FDFAA06F002802D0A06F00F00B
:109CB000F8F9606F002802D0606F00F0F2F921001F
:109CC000022000F0CAFB5046002803D07FF00401B8
:109CD0005846D047002D0DD01FFA88F8CDF80480E3
:109CE0001FFA89F9CDF8009003AB02AA39003000C1
:109CF00001F01CF805B0BDE8F08F0100486A0A8D3C
:109D00001218C86A101A0B8FC01A002804D4088DC4
:109D10004885C86A101A0CE0486ACB6AC01A012844
:109D200002DB0020488503E0C86A4B6AC01A4885F8
:109D3000002070472DE9F84300208146DFF81C061B
:109D40000068401CDFF81416086000200600DFF8E9
:109D5000040600680400002C00F02E81207C0028FE
:109D6000207C0128207C0A2800208046207C0228B4
:109D700006D194F84A00062802D118F101086CE0D7
:109D800094F84A000C2802D118F1010865E094F813
:109D90009C0001281FD3D4F89800401CC4F89800F8
:109DA000D4F8980094F89C100FF20862891811F802
:109DB000011C884251D30020C4F8980094F89C00FC
:109DC000072804D294F89C00401C84F89C002000D2
:109DD00001F07EF841E0B4F93600002802D4E08EAC
:109DE000401CE086A06F002837D0B4F93600B4F9E3
:109DF0004810884231DB207C02280DD0B4F94400A1
:109E0000B4F9461011EBE00094F84A100FF29452A6
:109E100089568840A4F848000020E086B4F8520033
:109E2000B4F85C10884202D2B4F8527001E0B4F881
:109E30005C70BFB27808A4F85400B4F85400218FC5
:109E4000884204D2208F80B24000A4F85400208FB2
:109E5000A4F85200200000F0CDFF207C062809D194
:109E6000DFF8F8040068216B401AB0F5C87F01D90B
:109E700018F10108207A000733D5207C042802D08D
:109E8000207C07282DD1D4F89400DFF8D4140818CA
:109E90003221B0FBF1F0DFF8C4140968226B891A93
:109EA000884204D201212000FFF7CCFE19E0D4F84B
:109EB000940094F89D10DFF8AC2402FB01003221DD
:109EC000B0FBF1F0DFF894140968226B891A88421C
:109ED00007D2200000F0D7FF94F89D00401C84F8C2
:109EE0009D00207C032809D1DFF870040068216BF5
:109EF000401AB0F5C87F01D918F10108207C092863
:109F000009D1DFF858040068216B401AB0F5166FCC
:109F100001D918F101085FFA88F8B8F1000F25D0CF
:109F2000200000F0A0F9002E06D0DFF82804006819
:109F30008442E068F06007E0DFF818040068A0429F
:109F4000E068DFF810140860D4F89000002805D00D
:109F50007FF004016069D4F890209047E068050024
:109F60002100022000F079FA2C00F4E694F8340085
:109F7000401C84F8340094F8340094F8351088427A
:109F800017D3002084F83400D4F88C00002806D0C1
:109F900021006069D4F88C209047814601E00020C0
:109FA00081464FFA89F9B9F1000F02D1200000F083
:109FB00011FD2600E468CEE600200600DFF89803D5
:109FC00000680400002C31D0207C0A280020804644
:109FD000DFF888030068216B401AB0F5166F01D9CD
:109FE00018F101085FFA88F8B8F1000F1BD02000C3
:109FF00000F039F9002E06D0DFF85C0300688442D7
:10A00000E068F06007E0DFF850030068A042E06815
:10A01000DFF844130860E06805002100022000F02A
:10A020001CFA2C00CEE72600E468CBE7BDE8F183FC
:10A0300070B5C84800680400002C31D0E06F0028DB
:10A0400019D0D4F88400002808D00023E26F210042
:10A050006069D4F88460B047050007E0002005007F
:10A06000E06F002802D0E06FFFF785FB6DB2002D96
:10A0700001D10020E06794F82200C0070ED594F8C3
:10A08000220050F0020084F82200200000F0A2FC20
:10A0900094F8220010F0FC0084F82200E468CBE77A
:10A0A00070BD70B504000025002C08D020680600A3
:10A0B000200000F007F8401905003400F4E72800FC
:10A0C000C0B270BD38B504000025002C0AD060680D
:10A0D000002803D06068FFF74EFB05002100042034
:10A0E00000F0BBF92800C0B232BDF8B504000D0085
:10A0F00016001F00002E03D03000FFF73CFB06E0E7
:10A100007FB2002F03D12800FFF703FD00E00020FD
:10A11000F2BD2DE9F04104007F20804600200700B9
:10A12000002006008B4800680500002D18D0687CD0
:10A13000E4B2844212D3687C5FFA88F880450DD37C
:10A1400086480068296B401AB84207D383480068E4
:10A15000296B401A07002E00687C8046ED68E4E712
:10A16000002E03D001213000FFF76CFDBDE8F08127
:10A1700070B5002006000020050077480068040044
:10A18000002C0DD075480068216B401AB04205D3F1
:10A1900072480068216B401A06002500E468EFE76A
:10A1A000002D03D001212800FFF74CFD70BD70B5D4
:10A1B0000400022000F037F90500002D0FD1FFF751
:10A1C000D7FF022000F02FF90500002D07D1200055
:10A1D000C0B2FFF79EFF022000F025F90500002D18
:10A1E0003FD0A0220021280001F0ADF84020687483
:10A1F00040F66830A5F86E000020A5F8700040F623
:10A200006830288540F6683068850020A872FF20F5
:10A21000E8724FF4067028873C20A5F8480000201B
:10A22000A5F844003C20A5F846005FF0FF30E88622
:10A230000120A5F8520000F07BF806006E66AE65BE
:10A24000EE64AE66454800682863002085F8340057
:10A250004548C5F884004548C5F89400002085F8B5
:10A260009D00280070BD10B50400207C002816D089
:10A27000207C0A2813D0207C012810D0E06F002811
:10A2800004D0E06FFFF777FA0020E067606FFFF718
:10A2900008FFA06FFFF705FF00206067A06710BDF3
:10A2A00038B504000D002068A84203D12068C068BA
:10A2B00020601BE0254821680160244800680028D0
:10A2C00014D022480068C068002809D01F480068E0
:10A2D000C068A84204D11D480068E968C16005E073
:10A2E0001A480068C06819490860E6E70020E8607D
:10A2F0002800FFF7B8FF287C0A280FD0287C012807
:10A300000CD095F82200C00708D595F8220050F02F
:10A31000020085F82200280000F05CFB287C012860
:10A3200003D0686F0028A86F00280020287431BD72
:10A330000F4800680949096808180D4908600C4869
:10A3400000687047D3D5002084D5002094D5002024
:10A3500088D500208CD5002090D5002080D5002005
:10A36000B84C0A00F8240100EBA0000800DD6D00E5
:10A3700014000020F8B504000D00280000F0EEFFE6
:10A380000700002F0AD0388D002807D0388D2838D4
:10A390000600A4B2B6B2B44200D33400200080B2AA
:10A3A000F2BD0000010203040506070707070707BF
:10A3B0000700000003060C183060780010B400237A
:10A3C0001A0092B2092A01D2521CFAE72D4B9B08BF
:10A3D0009B00180000231A0092B2092A21D292B2DF
:10A3E000294B002443F822400023190092B20FF2B7
:10A3F000B00333F8123089B2994210D292B2224B94
:10A4000053F82230036092B21F4B43F8220092B2FD
:10A410000FF2780333F812301818491CE6E7521C83
:10A42000DAE710BC70470100C9B2092901D3002046
:10A4300012E0C9B2144850F821000200002A0AD0E4
:10A44000C9B21148136840F821300420B2FBF0F380
:10A4500003FB1023002B1000704710B400290FD00D
:10A460000423B1FBF3F404FB1314002C0A00C0B264
:10A47000054B53F820301360C0B2034B43F8202043
:10A4800010BC70471F00002094D400201C00200046
:10A49000A00020001400200008001000EC050000BF
:10A4A000040006000A0006000C0005001E0007005C
:10A4B000050000002DE9F04104000D0016001F000A
:10A4C000D5F80480208BFEF7A9FFA8F80000208CA7
:10A4D000FEF7A4FFA8F80200C8F80470606AFEF74F
:10A4E000AAFFC8F80800B8F80C00FEF79DFF4FF669
:10A4F000C071084050F0100080B2FEF78FFFA8F83E
:10A500000C00608DFEF78AFFA8F80E000020A8F866
:10A510001200B8F80C00FEF787FF042196FBF1F15A
:10A52000491D10F03F0050EA013080B2FEF776FF7F
:10A53000A8F80C000020A8F81000606A618D0818C7
:10A54000E0624046BDE8F08130B583B004000D0004
:10A5500000200190012000902B00DBB2002200219E
:10A56000200000F001F83EBD2DE9FE4F84B004004C
:10A57000BDF8140000280BD19DF84400002807D135
:10A580009DF818000321084202D17FF009001EE265
:10A59000BDF81400002805D10498002802D07FF0EF
:10A5A000090014E2B4F86E00BDF81410884208D215
:10A5B00094F8220050F0800084F822005FF0FF3011
:10A5C00005E2BDF814008146049801909DF844000E
:10A5D000C00701D5042000E000209DF84410890741
:10A5E00001D50C2100E0002108188DF80000A06EB4
:10A5F0008346B4F8700080461FFA88F8B8F10C0F53
:10A6000005D24FF6FD701FFA88F8804508D394F8FC
:10A61000220050F0800084F822005FF0FF30D6E185
:10A620001FFA88F8B8F1000F05D0A06F002801D1FB
:10A63000606F002805E0A06F002802D1606F00283D
:10A64000FFD0002005000600824600200700002EF3
:10A6500005D01FFA89F9B9F1010FC0F0DA80208F17
:10A660009DF80010401A1FFA89F9484504DA208F36
:10A670009DF80010471A00E04F460420FFF7D3FE74
:10A680000500002D00F08D8100202860002068600A
:10A69000002E01D12E0003E0BAF1000FCAF80050DD
:10A6A000AA469DF84000C00729D500229DF8000069
:10A6B000C11989B20020FEF7D0FE6860002800F0C2
:10A6C000708168684089BFB29DF80010C91988423E
:10A6D0006868FFF796F810EB080080460498002899
:10A6E00009D0BFB23A0001999DF800006B685B6821
:10A6F000C01800F01DFE68684068A86031E00022C4
:10A700009DF8001089B20020FEF7A7FE68600028BF
:10A7100000F047816868FFF774F810EB0800804686
:10A720001FFA89F9B9F1010F1BD30122390089B24F
:10A730000320FEF792FE0290002805D16868FFF71B
:10A740001AF8002068602CE118F1010802980199BC
:10A7500041600198A86002996868FFF762F80020DC
:10A7600002901FFA88F8B8F10D0F05D24FF6FD7070
:10A770001FFA88F8804500D313E1AF81142168687F
:10A78000FEF7AAFF002840F00C8168684068286145
:10A79000208BFEF743FE29690880208CFEF73EFEE1
:10A7A000296948805846FEF746FE296948602869AD
:10A7B0000021418228698089FEF736FE4FF6C0717C
:10A7C00008409DF81810084380B2FEF727FE29695B
:10A7D00088819DF84400A87328698089FEF724FECB
:10A7E0009DF80010042291FBF2F1491D10F03F008A
:10A7F00050EA013080B2FEF711FE29698881B9EB79
:10A800000709BFB217EB0B0BBFB2019838180190C4
:10A810001DE7606F002802D10020824608E0606FCB
:10A820008246DAF80000002802D0DAF800A0F8E743
:10A83000BAF1000F6AD0DAF810008089FEF7F4FD53
:10A84000C00709D4DAF810008089FEF7EDFDC0F3E7
:10A85000400010F0010000E00120BAF80C10401890
:10A86000002853D0DAF810008089FEF7DDFD0321BF
:10A8700008424BD19DF818000321084246D1208F91
:10A88000BAF80C10B289511888423FDB9AF80E00D2
:10A89000B17B88423AD19DF800001430414209B2A0
:10A8A0007068FEF719FF00287BD170684089002886
:10A8B0000CD1706803907068006870600398002184
:10A8C0000160B8F101080398FEF755FF7068002891
:10A8D00003D0706840890128FFD27168DAF804005B
:10A8E000FEF79FFFBAF80C00B1890818AAF80C000F
:10A8F0003068CAF80000B54203D15546BAF80C00DA
:10A90000070031000420FFF7A8FD06E0BAF1000FB0
:10A9100001D1666701E0CAF800609DF818000321C4
:10A92000084204D0BDF81400401CADF814009DF896
:10A930001800C00705D594F8220050F0200084F8D4
:10A940002200A06EBDF814100818A066B4F86E00BE
:10A95000BDF81410401AA4F86E00A4F87080B4F882
:10A960007000002804D0A06F002801D1606F00287B
:10A97000002D14D0BFB2012F11D3286900280ED0AA
:10A980009DF8400080070AD428698089FEF74CFDB5
:10A9900050F0080080B2FEF741FD2969888100204F
:10A9A00015E094F8220050F0800084F82200002E78
:10A9B00002D03000FFF775FBB4F87000002804D017
:10A9C000A06F002801D1606F00285FF0FF3007B052
:10A9D000BDE8F08F2DE9F04F85B0040000208DF820
:10A9E0000800CF480068A04201D100202EE1B4F851
:10A9F0005C00B4F85210884202D2B4F85C9001E0D6
:10AA0000B4F85290606F0600A06F0700002F04D0CA
:10AA10003868002801D03F68FAE794F822008007E0
:10AA20003AD5002E09D030694068FEF710FDE16C80
:10AA3000401AB189081881452ED200229DF80800DD
:10AA400010F1140189B20120FEF707FD0500002D69
:10AA500002D17FF00100F9E094F8220010F0FC0030
:10AA600084F82200A06DFEF7E6FC03009DF80820A4
:10AA700029002000FFF71EFD039006200190A07A18
:10AA80000090E37A221D2100280000F00BFE280030
:10AA9000FEF771FE0020D9E0002E00F0B88030698A
:10AAA0004068FEF7D4FCE16C401AB1890818814572
:10AAB000C0F0AD8030698089FEF7B6FC4007A06F1A
:10AAC00000280FD094F8220040060BD4606F0028B5
:10AAD0000AD0606F0068002804D1606F8089218FE0
:10AAE000884201D3012000E00020002805D194F81D
:10AAF0002200A021084200F08A8030686067207C34
:10AB0000022810D030698089FEF78EFC50F01000CA
:10AB100080B2FEF783FC3169888194F8220010F03E
:10AB2000FC0084F822002100300000F092F8306927
:10AB30004068FEF78CFC824630698089FEF774FC21
:10AB4000C00708D430698089FEF76EFCC0F340006E
:10AB500010F0010000E00120B189401810EB0A0854
:10AB6000A06DB0EB0800002801D5C4F8588030690A
:10AB70008089FEF759FCC00708D430698089FEF748
:10AB800053FCC0F3400010F0010000E00120B18947
:10AB90004018012835DB00203060A06F002802D16A
:10ABA000A667370030E030694068FEF750FC824607
:10ABB00038694068FEF74BFCBAEB000000281DD551
:10ABC00004F2780ADAF80000002811D0DAF8000060
:10ABD00000694068FEF73BFC834630694068FEF739
:10ABE00036FCBBEB0000002802D5DAF800A0E9E74C
:10ABF000DAF800003060CAF8006005E03E603F68A7
:10AC000002E03000FFF75EFA606F060044E7002EB6
:10AC100015D094F89C00002811D130694068FEF7E7
:10AC200016FCE16C401AB1890818B4F85C10814236
:10AC300005D20020C4F89800012084F89C0094F804
:10AC4000220010F07F0084F82200002005B0BDE84B
:10AC5000F08F2DE9FC4104000D00686AFEF7EBFB64
:10AC600021698860688DFEF7D9FB2169C881686A0F
:10AC7000698D0818E862206900F214008046A07B04
:10AC8000C00706D52748FEF7D6FBC8F8000018F124
:10AC90000408002D02D0286800280CD1281D00F0DF
:10ACA0005DFB0700002F38D0381D002801D100209F
:10ACB00000E078682860B5F936005FF0FF3188421F
:10ACC00001D10020E886E86B002807D1164800680B
:10ACD000E86320694068FEF7BAFB28642069616870
:10ACE0004968401A060060684089801B6168488195
:10ACF00060680089801B6168088160682169416023
:10AD000020690021018206200190A87A0090EB7A48
:10AD10002A1D2900606800F0C5FCBDE8F381000031
:10AD2000ACD50020B405040280D500202DE9F04FF9
:10AD300083B006000F00904699460C9C0D9D0022A2
:10AD400014210120FEF789FB8246BAF1000F4FD093
:10AD5000BAF80A001428DAF804008346200080B20A
:10AD6000FEF75CFBABF80000280080B2FEF756FB54
:10AD7000ABF802003000FEF75EFBCBF804003800B1
:10AD8000FEF759FBCBF80800BBF80C00FEF74CFBB4
:10AD90004FF6C071084050F0140080B2FEF73EFB41
:10ADA000ABF80C0040F66830FEF738FBABF80E004D
:10ADB0000020ABF81200BBF80C00FEF735FB10F0DA
:10ADC0003F0050F4A04080B2FEF728FBABF80C0027
:10ADD0000020ABF810000620019000200090FF2317
:10ADE0004A464146504600F05DFC5046FEF7C3FC23
:10ADF000BDE8F78F38B50400A06F002816D0A06F0B
:10AE000005002868002801D02D68FAE7606F2860E7
:10AE1000A06F60670020A06794F84A00401C84F887
:10AE20004A000020E0632000FFF7D4FD31BDF8B5F3
:10AE30000400A06F002825D0A06F05002868A06737
:10AE400004F274000600306800280ED030680069F3
:10AE50004068FEF7FCFA070028694068FEF7F7FA39
:10AE6000381A002801D53668EDE73068286035606B
:10AE700094F84A00401C84F84A000020E063200057
:10AE8000FFF7A8FDF1BD7CB50400002214210120CC
:10AE9000FEF7E3FA0500002D19D068891428A06D8B
:10AEA000401EFEF7C8FA0300002229002000FFF729
:10AEB00001FB06000620019000200090E37A221D8D
:10AEC0002100280000F0EEFB2800FEF754FC73BDC3
:10AED000F0B583B00400A06F0700002F01D1606FB0
:10AEE0000700002F22D0002215210120FEF7B5FA1D
:10AEF0000500002D1AD0688914283869436800229B
:10AF000029002000FFF7D6FA06006868B9680978BA
:10AF100001750620019000200090E37A221D210097
:10AF2000280000F0BFFB2800FEF725FCF7BD50F815
:10AF3000041B61B150F8042BD30744BFA9F10103EE
:10AF40009A18002342F8043B091FFAD1EFE7704733
:10AF500010B4DFF8C8331B689842DFF8C4331B68AD
:10AF600098420379002B038841F20104A34203882D
:10AF7000DFF8A84324681B19190088421BD00B79FD
:10AF8000002B18D1DFF898331B68994213D0DFF8F3
:10AF900094331B688B4202D1DFF8883318600B882A
:10AFA00003800B88DFF8744324681B19DFF86C43B7
:10AFB0002468041B5C804388DFF8604324681B1905
:10AFC0001A00824214D01379002B11D1DFF85433C8
:10AFD0001B68834202D1DFF84C331A600388138068
:10AFE0000388CE4C24681B19CC4C2468141B5C804D
:10AFF00010BC7047CC4989088900C84A1160C7490C
:10B00000096808004FF4805101800021418000212F
:10B010000171C249096811F58051C14A1160C049E6
:10B02000096801220A71BE4909684FF480520A80FA
:10B03000BB4909684FF480524A80BC4901220A701A
:10B04000B849B64A12680A60704738B50400002C47
:10B0500023D014F003000028B0480068844203D3D2
:10B06000AF4800688442FFD3AC480068844203D3F1
:10B07000AB480068844200D30FE0B4F1080005003B
:10B080002879002800202871A6480068854201D24E
:10B09000A44805602800FFF75BFF31BDF0B5020052
:10B0A000C81C4FF6FC71014089B20C2901D20C205A
:10B0B000010041F2010089B2814201D3002096E0F3
:10B0C00096480068824203D3954800688242FFD3C5
:10B0D00092480068824203D391480068824201D3BB
:10B0E000100084E0B2F1080006008C480068301AB5
:10B0F00004003088A4B2001B083803009BB289B258
:10B100008B429BB289B28B4201D200206FE089B2A0
:10B110009BB2994201D1100069E03088DFF8FCC190
:10B12000DCF800C010EB0C0007003879002837D19C
:10B13000B7F800C0604611EB040C1CF1080C654622
:10B14000DFF8E0C1DCF800C0BC450AD1ADB2DFF8E1
:10B15000CCC1DCF800C015EB0C0CDFF8C8E1CEF870
:10B1600000C0ADB2DFF8B4C1DCF800C015EB0C0CC8
:10B1700067465FF0000C87F804C038807C8035801B
:10B18000B7F800C0BCF5805F30D0B7F800C0DFF87A
:10B190008CE1DEF800E01CEB0E0CACF8025025E070
:10B1A0009BB289B211F1140083421FD308190830F1
:10B1B0000500ADB2594800682818070059480068D2
:10B1C000874201D2574807600020387130883880A4
:10B1D0007C8035803888B0F5805F07D03888DFF80C
:10B1E0003CC1DCF800C010EB0C0045801000F0BD45
:10B1F000F0B40500ADB2002D01D100208BE0E81CB9
:10B200004FF6FC750540ADB20C2D01D20C200500A7
:10B2100041F20100ADB2854201D300207BE04148FC
:10B2200000683E4E3668801B010089B2ADB2D5F58C
:10B23000805081426EDA89B23848006808180300ED
:10B240001879002861D1188889B2401A0838ADB23F
:10B25000A8425AD3188889B2401A0838ADB215F1FD
:10B260001406B04219D368180830020092B22B4875
:10B270000068101804000020207118882080618068
:10B280001A80012018712088B0F5805F07D02088CF
:10B29000224E36688019428001E001201871214851
:10B2A000006883421DD11F480068007900280ED035
:10B2B0001C4800681A4E3668B04208D01948006829
:10B2C0000088164E36688019164E3060EBE7154838
:10B2D0000068134E3668B04203D012480068007907
:10B2E00000280F480068ADB2EE180836B04213F1DE
:10B2F00008000426B0FBF6F707FB1607002F13F033
:10B300000300002813F1080005E089B20348006833
:10B31000095A8AE70020F0BC7047000054D500208D
:10B3200058D500205CD500202F830020D1D50020E7
:10B3300070B504000D00160032002900200000F056
:10B34000D3F9200070BD70B504000D0016002A006E
:10B350003100200000F000FA200070BD38B5040074
:10B36000CD4800680500002D10D0280000F0DBFA61
:10B37000002809D02068A96808406968AA681140B7
:10B38000884201D128000FE02D68ECE7C34800682F
:10B39000002805D0C148006800F0C5FA002801D196
:10B3A000002001E0BD48006832BD2DE9F0470400EF
:10B3B0000D00606806003088FEF736F880B2000B9A
:10B3C000C0B2042804D02000FEF7D5F90020C4E064
:10B3D0003088FEF729F8C0F3032081461FFA89F967
:10B3E0005FEA89097088FEF71FF8804660891FFAB6
:10B3F00089F9484504D320891FFA88F8404504D2CA
:10B400002000FEF7B8F90020A7E0414689B22000ED
:10B41000FEF71BF95FF0010A2F00380000F083FAF5
:10B42000002811D0381D00280ED0786800280BD0D5
:10B4300030697968884206D0390016F11000FEF7AD
:10B440002DFB002800D00EE0BAF1000F05D000203F
:10B45000824691480068070000E03F68AF4200D193
:10B460003F68002FD9D1290016F10C00FEF716FB1A
:10B4700000280CD15FF07040FDF7E9FFF16810EA99
:10B48000010A5FF06040FDF7E2FF824504D1200031
:10B49000FEF771F9002060E0002F04D12000FEF7D4
:10B4A0006AF9002059E0B6F806A043F6FF70FDF7F0
:10B4B000B5FF1AEA000F09D0200000F0D1FB04000C
:10B4C000002C01D1002048E060680600704805604B
:10B4D000704806602900200000F066FD002835D184
:10B4E0003089FDF7A1FFC0B2C0B201280DD00628F7
:10B4F00006D011280ED12900200000F099FD25E08A
:10B5000029002000FCF77CFD20E02900200000F04D
:10B51000ABFF1BE0290016F11000FEF7BFFA002870
:10B5200011D15FF07040FDF792FF316910EA010A16
:10B530005FF06040FDF78BFF824504D0666002211A
:10B54000200001F059F82000FEF715F950480021BD
:10B5500001605048002101600020BDE8F0872DE91E
:10B56000F84F06000F0090460A9C0B9DDDF83090C6
:10B57000B8F1000F70D05FF0140B14213000FEF70B
:10B58000ABF8002802D07FF001007FE070688246AF
:10B5900070891428BAF80800FDF746FFC0B29DF87C
:10B5A000001050EA012080B2FDF738FFAAF8080029
:10B5B000BAF80800FDF738FFEDB280B2000A55EA8C
:10B5C000002080B2FDF72AFFAAF80800B8F1000FAA
:10B5D00001D1002001E0D8F80000CAF810001FFADD
:10B5E0008BFB04209BFBF0F0E4B254EA002050F403
:10B5F000804080B2FDF712FFAAF800003089FDF705
:10B600000DFFAAF802000020AAF8060024480088CE
:10B61000FDF704FFAAF8040021480088401C2049D7
:10B620000880002F02D0386800280AD119F10400E0
:10B63000002801D1002001E0D9F80400CAF80C006C
:10B6400006E0002F01D1002000E03868CAF80C00A5
:10B650000020AAF80A0004E0706882461AF110007F
:10B660008046B9F8280000280AD0B9F828003189A6
:10B67000884205D242464946300000F0D1FB05E041
:10B68000424631004846D9F814309847BDE8F28F59
:10B6900044D5002048D5002068D500206CD5002076
:10B6A000C4D500202DE9F04784B006000F00904675
:10B6B00099460C9D0D9C4046FFF750FE824600289F
:10B6C00002D17FF003000CE0CDF808A0E4B20194B1
:10B6D000EDB200954B46DBB2424639003000FFF731
:10B6E0003EFF04B0BDE8F0874AB38B0707D0521E77
:10B6F00011F8013B00F8013B21D08B07F7D18307FC
:10B700001ED1103A07D330B4B1E83810103AA0E88F
:10B710003810F9D230BC530724BFB1E80810A0E8B4
:10B72000081044BF51F8043B40F8043BD20724BF43
:10B7300031F8022B20F8022B44BF0B7803707047BE
:10B74000083A07D3B1E80810083A40F8043B40F83B
:10B7500004CBF7D25307E4E762F30F2262F31F42F0
:10B76000401810F0030308D0C91A1FD3DB0748BFE5
:10B7700000F8012D28BF20F8022D130030B4144624
:10B780001546103928BF20E93C00FAD8490728BFE0
:10B7900020E90C0048BF40F8042D890028BF20F89C
:10B7A000022D48BF00F8012D30BC7047C91818BFE2
:10B7B00000F8012DCB0728BF00F8012D70470000CD
:10B7C0002DE9F04704000D0016001F00DDF8208071
:10B7D000DDF82490DDF828A0002060600020A06043
:10B7E0000020E060002084F82A00C4F81C803E4855
:10B7F000007884F82D003C480078401C3A490870D5
:10B80000C4F810A03B0032002900200000F00EF820
:10B810002000C847002801D0002005E03348006818
:10B820002060324804602000BDE8F087F8B50400CD
:10B830000D0016001F002900200000F009F831005B
:10B84000200000F045F83900200000F03AF8F1BD82
:10B850002DE9F04104000D0028686168884228D075
:10B86000244800680600002E0DD0306861688842C8
:10B8700007D1D6F80C8001213000FEF7E3F94646E7
:10B88000F1E7F668EFE71C4800680700002F10D0CA
:10B89000002F0CD03868002809D0386861688842C9
:10B8A00005D1002D01D1002000E028683860FF6834
:10B8B000ECE7002D01D1002000E028686060BDE8C1
:10B8C000F081002901D1002200E00A68C2607047BF
:10B8D000002901D1002200E00A6882607047044913
:10B8E0000860704700000000D2D5002068D5002015
:10B8F0006CD500208CD5002088D5002010B5040020
:10B9000094F82A00C0070DD494F82A0050F00100E2
:10B9100084F82A0094F82A00800603D5211D20000F
:10B9200001F003FC10BD90F82A0010F001007047F0
:10B930002DE9F84304000D000026A542002D01D09A
:10B940002868A042606840688046B8F80400002873
:10B9500016D160680700D8F800006060142214F166
:10B9600008017868FFF7E4FC0121380000F04EFE82
:10B970003800FDF746FF801906003800FDF7FBFE92
:10B9800060680700002F0ED078688046B946D8F866
:10B99000000007004846FDF734FF801906004846BE
:10B9A000FDF7E9FEEEE72900200000F080F8DFF85F
:10B9B000F0050088B042DFF8E8050088801BDFF85A
:10B9C000E01508803000BDE8F2832DE9F84F04004F
:10B9D0000D005FF0000A00200700002080460020D4
:10B9E0008346DFF8B80500680600002E21D0706994
:10B9F000E168884207D1B0692169884203D1B089E2
:10BA0000A188884201D0012000E0002000280AD04F
:10BA10001BF1010B002F01D1370004E0F87FF17F0B
:10BA2000884200D337003068002800D0B04636681E
:10BA3000DBE7002F06D041463800FFF779FF81464B
:10BA400019EB0A0AAA4502DABBF1020FC3DA504623
:10BA5000BDE8F28F70B504000D000520FEF7E3FC91
:10BA60000600002E0DD129002000FFF7AEFFA842EE
:10BA700003DB0520FEF7D7FC0600002E01D10020D5
:10BA800014E0202200213000FFF75DFC0320F07756
:10BA9000DFF8080500683060DFF800050660142252
:10BAA000210016F10800FFF743FC300070BD38B5E7
:10BAB00004000D00DFF8E4040068A04204D1DFF8C0
:10BAC000DC042168016002E0002D2068286021006C
:10BAD0000520FEF7C2FC31BD2DE9F04F83B0040014
:10BAE0000D005FF000085FF0010A6868019001989E
:10BAF0004088FDF799FC834601980088FDF794FC87
:10BB00001FFA8BFBC0F3032080B2BBEB8000ADF8C3
:10BB100002000198C088FDF787FCC004C00C80B209
:10BB2000C000ADF800006868060000203060BDF875
:10BB30000000B080BDF80000BDF802100818F080C9
:10BB400060688146B9F1000F30D0D9F804000700D1
:10BB5000B088B988884213D2C6F80090B8F1000FB7
:10BB60000CD0B088B8F80610884203D3B888F188A2
:10BB7000884200D265E0C8F8005000E0656015E03A
:10BB8000B088B98888425CD0B088F988884258D398
:10BB9000B8F1000F06D0B8F80600B988884201D085
:10BBA0000020824638688146B846CBE7B9F1000FDD
:10BBB00013D1B8F1000F0DD0B088B8F80610884244
:10BBC000C8F80050B8F80600B188884205D00020B7
:10BBD000824602E0606800286560A07FC0072ED51D
:10BBE000BAF1000F29D0606840688088002802D030
:10BBF0000020824621E0B04630688146B9F1000F4E
:10BC00000ED0D9F804000600B8F80600B1888842C2
:10BC100002D00020824603E0B04630688146EDE75E
:10BC2000BAF1000F09D06068002860684068B0422F
:10BC300030680028F088A18B884250460EE0002032
:10BC40000CE02800FDF7DDFDD5490988C0B2081ACF
:10BC5000D34908802800FDF78EFD0020BDE8FE8F47
:10BC60002DE9F84F04005FF0000A60680600308894
:10BC7000FDF7DAFBC0F3032080B28000142840F007
:10BC8000C980F088FDF7D0FBC004C00C80B2C000B2
:10BC9000ADF802007088FDF7C7FB83463088FDF7DA
:10BCA000C3FB1FFA8BFBC0F3032080B2BBEB800009
:10BCB000ADF800002000FDF7A4FD8146B8480088DB
:10BCC0005FFA89F919EB00000B2810DB5FFA89F99C
:10BCD00049463000FFF779FE002807D0B0480088B9
:10BCE0005FFA89F919EB00000B2800DB92E0AB4802
:10BCF00000680700002F13D07869F168884209D1E5
:10BD0000B8693169884205D1B889B188884201D1C2
:10BD1000012000E00020002802D1BA463F68E9E790
:10BD2000002F09D15FFA89F949463000FFF792FEEA
:10BD30000700002F10D16DE0F088FDF775FBC004FF
:10BD40000AD1F889FDF770FBC00405D01422310038
:10BD500017F10800FFF7ECFA914800885FFA89F9BB
:10BD600019EB00008E490880F088FDF75DFB800428
:10BD700009D4B87F50F00100B877BDF80200BDF8D3
:10BD800000100818B88321003800FFF7A5FE00282E
:10BD90003ED0B88B1430B8837868406800680500DE
:10BDA000786840680600142217F108013000FFF798
:10BDB000BFFAB88BFDF732FB70800020F0800020C6
:10BDC00070811421300001F035FA70817868040028
:10BDD000002D0ED0686880467FF013012800FDF723
:10BDE0007BFC29002000FDF71CFDD8F800000500B1
:10BDF000EEE751463800FFF75AFE2000FDF701FD3F
:10BE000067490988C0B2081A65490880200005E022
:10BE1000002003E02000FDF7AEFC0020BDE8F28F1B
:10BE20002DE9F74F84B00598008DADF80600142079
:10BE3000ADF80400022200210220FDF70EFB0400F1
:10BE4000002C02D15FF0FF30A4E0BDF80600608155
:10BE500020815448800880006060606806001422D9
:10BE6000049841683000FFF763FAF088FDF7DCFAC8
:10BE700082465FEACA40C00C80461AF40050ADF812
:10BE80000A000498008914380700BDF80600143829
:10BE9000082190FBF1F0ADF80800BFB2002F75D07B
:10BEA000BDF806001438BFB2B84202DB5FF00109EA
:10BEB00001E05FF000095FFA89F9BDF80A005FEA66
:10BEC000C841C90C084382461FFA89F9B9F1000F2D
:10BED00001D15AF4005A1FFA89F9B9F1000F01D0C3
:10BEE000BB4604E0BDF8080080B25FEAC00BBDF8B5
:10BEF00004000090BDF804305A4692B216F11401C5
:10BF00000498FDF71CFD00994018ADF80400504658
:10BF100080B2FDF783FAF0801BF1140080B2FDF7C8
:10BF20007DFA7080002070811421300001F082F9C8
:10BF300070811FFA89F9B9F1000F05D017F11401CA
:10BF400089B22000FDF781FB002200210220FDF7CD
:10BF500084FA0500002D13D021002800FDF77DFC98
:10BF6000069A29000598059B5B6998472800FDF70C
:10BF700002FCB7EB0B07BDF8080010EB08088CE7D4
:10BF80002000FDF7F8FB5FF0FF3003E02000FDF735
:10BF9000F2FB002007B0BDE8F08F00004CD5002078
:10BFA000C6D500200BBD00202DE9F04704000D0090
:10BFB0005FF0000A60688046B8F80800FDF734FAC0
:10BFC000C0B28146002007001848006806005FFAEA
:10BFD0008AFABAF1000F24D1002E22D0307C00B2B0
:10BFE0000FFA89F9484519D17069002816D018F15F
:10BFF0000C0322003100B069D6F814C0E0470028D5
:10C000000CD00020040001208246002F06D0F068EA
:10C01000F86006480068F060044806603700F6687B
:10C02000D5E75046C0B2BDE8F087000070D50020CB
:10C030002DE9F24F84B00400606807003888FDF7EE
:10C04000F3F92189C0F3032080B2800008308142D7
:10C050000EDB3888FDF7E8F9C0F3032080B28000DA
:10C0600000B2414209B22000FDF736FB002803D0A0
:10C070002000FDF780FBCEE060680290049917F184
:10C080001000FDF70BFD824602980088FDF7CCF901
:10C09000804602984088FDF7C7F9ADF804000020FB
:10C0A00005000020814600200600DFF898030068A4
:10C0B0008346BBF1000F51D000208146BBF812002F
:10C0C000BDF8041088421ED15FFA8AFABAF1000F57
:10C0D00006D1BBF1000F0DD0DBF80000002809D01D
:10C0E000DBF800003969884204D05FFA8AFABAF1B5
:10C0F000000F08D001208146002E04D19BF81000CB
:10C10000400700D45E465FFA89F9B9F1000F21D0EB
:10C11000BBF814001FFA88F840451BD11BF104003E
:10C12000002808D0DBF80400002804D0DBF8040065
:10C13000F96888420ED1002D0BD0DBF80C00E860C6
:10C14000DFF800030068CBF80C00DFF8F802C0F855
:10C1500000B003E05D46DBF80CB0AAE7BBF1000FCE
:10C1600000D1B346BBF1000F04D10498406839698F
:10C1700088424DD17FF007012000FDF7ADFA00287D
:10C1800003D02000FDF7F7FA45E0BBF1000F15D012
:10C19000DBF8180000280DD01FFA88F8CDF80080D1
:10C1A00017F10C0322005946DBF81C00DBF818C01D
:10C1B000E04730E02000FDF7DEFA2CE05FFA8AFA73
:10C1C000BAF1000F20D15FF07040FDF740F93969F6
:10C1D000084000905FF06040FDF739F90099814216
:10C1E00012D03888FDF720F9C0F3032080B2800018
:10C1F00010F1080109B22000FDF76EFA6068B8423C
:10C200000321200000F0F8F92000FDF7B4FA02E065
:10C210002000FDF7B0FA05B0BDE8F08F38B5040096
:10C220000D00A38A221D2900200000F001F832BD74
:10C230002DE9F04182B004000D0016001F0030000F
:10C24000FFF78CF88046B8F1000F02D17FF00300B1
:10C2500008E0CDF800803B009BB2320029002000AE
:10C2600000F002F8BDE8F6812DE9F44F84B0040037
:10C270000D001E000E9F608A00280DD1628A2100E9
:10C28000200000F06AF882464FFA8AFABAF1000FED
:10C2900002D0504640B25DE008212800FDF71CFAAC
:10C2A000002810D0002208210120FDF7D6F883468F
:10C2B000BBF1000F02D15FF0FF304BE02900584680
:10C2C000FDF7CBFA00E0AB46BBF80A000828DBF824
:10C2D00004008046608AFDF7A1F8A8F8000030004D
:10C2E00080B2FDF79BF8A8F802000020A8F806002D
:10C2F000002C02D02068002802D1381D81460EE0B3
:10C3000020687968884209D0AB4504D05846FDF7CB
:10C3100032FA002083467FF008001BE0A146BBF8FC
:10C320000800FDF77BF8A8F804000297112001909F
:10C33000A07A0090E37A049A49465846FFF70FF92D
:10C340008246AB4504D05846FDF715FA00208346D7
:10C35000504640B205B0BDE8F08F30B40300002075
:10C360000400384800680500002D07D0AB4203D117
:10C37000E4B2002C01200400ED68F5E7002901D1AA
:10C38000002000E00868186092B2002A1CD14FF427
:10C39000805002002B4800680500002D0FD047F6A2
:10C3A000FF7092B282420AD0688A92B2904204D15F
:10C3B000521C244800680500EFE7ED68EDE7002D0A
:10C3C00002D07FF00A0009E05A82E4B2002C04D1C6
:10C3D0001C480068D8601B480360002030BC7047D0
:10C3E000F8B504000D001600608A002809D1628AA1
:10C3F00021002000FFF7B1FF40B2002801D040B279
:10C400001BE0002D01D1002000E028686060A682BA
:10C41000207C50F0040020740A4800680700002FB8
:10C4200005D0BC4201D1002007E0FF68F7E70548CE
:10C430000068E060034804600020F2BD8161C261D1
:10C4400070470000B0D5002010B50120FDF7EBFFCC
:10C450000400002C06D0202200212000FEF773FFEC
:10C46000FF20E072200010BD2DE9F04F85B00400E0
:10C470000D00606807003888FCF7D6FFC0F3032082
:10C4800000B2800081460FFA89F9D9F1000109B2A2
:10C490002000FDF721F9002802D12089042800D2CC
:10C4A000A0E0606800788DF80C009DF80C0008286A
:10C4B00040F094805FF0010A5FF07040FCF7C7FF26
:10C4C000396910EA010B5FF06040FCF7C0FF83455B
:10C4D00001D100208246290017F11000FDF7DEFA95
:10C4E000002801D000208246BAF1000F03D12000BD
:10C4F000FDF741F97DE02089082873D3200000F082
:10C50000A4FE002803D02000FDF735F971E02221B8
:10C510002000FDF7E1F800282ED0494609B220009E
:10C52000FDF7DAF8002861D1002221890220FCF70A
:10C5300094FF8246BAF1000F58D0BAF80A000FFAF9
:10C5400089F919F10801884221005046FDF790F958
:10C5500000284BD1DAF8040007000FFA89F9D9F165
:10C56000000109B25046FDF7B7F800283ED120007F
:10C57000FDF701F9544606E07FF021012000FDF7A8
:10C58000ABF8002832D160680600F8688046386948
:10C59000F860C7F810800020307000207080388963
:10C5A000FCF742FF50F47F4080B2FCF737FF388140
:10C5B00000207881494609B22000FDF78DF8002857
:10C5C0000CD102950120019000200090FF23002251
:10C5D00017F10C012000FEF7C2FF82462000FDF794
:10C5E000CAF806E02000FDF7C6F802E02000FDF7DB
:10C5F000C2F805B0BDE8F08F38B504000D002A0080
:10C60000D2B20321200000F00BF831BD38B5040090
:10C610000D002A00D2B20B21200000F001F831BD3C
:10C620002DE9F04383B004000D0016000022242100
:10C630000120FCF712FF0700002F2CD07889242856
:10C64000606880467868814689F8005089F8016002
:10C650000020A9F804000020A9F806001C22616847
:10C6600078680830FEF764FE0020A9F80200798996
:10C67000484600F0DFFDA9F80200012001900020EB
:10C680000090FF2318F10C0200213800FFF70AF890
:10C690003800FDF770F8BDE8F783000038B50400F6
:10C6A000002C60680028002C0BD0250024686868E6
:10C6B00000286868FDF75FF829000620FDF7CDFE29
:10C6C000F1E731BD10B500200400E4B20A2C56D2C7
:10C6D000E4B21420DFF8441900FB0410C07B401CB6
:10C6E000E4B21421DFF8342901FB0421C873E4B259
:10C6F0001420DFF8281900FB0410807B022808D1E1
:10C70000E4B21420DFF8141900FB0410C07BF028F9
:10C7100011D2E4B21420DFF8041900FB0410807B6E
:10C7200001282AD1E4B21420DFF8F01800FB04102D
:10C73000C07B022821D3E4B21420DFF8E01800FB0C
:10C7400004100068002810D0E4B21420DFF8CC18E0
:10C7500000FB04100068FFF7A1FFE4B21420DFF82B
:10C76000BC1800FB041000210160E4B21420DFF8C3
:10C77000AC1800FB041000218173641CA5E710BDF8
:10C780002DE9F24F82B004000A208DF800000A253E
:10C790000A265FF0000B00275FF000085FF00A092F
:10C7A0005FF0000A002C1CD0DFF874080078142118
:10C7B000DFF8682801FB0020807B022811D1206867
:10C7C000DFF85C1809781422DFF8503802FB0131D9
:10C7D0004968884205D1DFF8480890F9000040B266
:10C7E00017E1002083465FFA8BFBBBF10A0F80F054
:10C7F0009C8076B20A2E0BD15FFA8BFB1420DFF8F7
:10C800001C1800FB0B10807B002801D15E4689E0DC
:10C810005FFA8BFB1420DFF8041800FB0B10807B01
:10C8200001284BD1002C11D020685FFA8BFB14211A
:10C83000DFF8E82701FB0B214968884206D1DFF8C1
:10C84000E00780F800B0584640B2E2E05FFA8BFBA8
:10C850001420DFF8C81700FB0B100068002816D062
:10C860005FFA8BFB1420DFF8B41700FB0B10C07BC2
:10C870005FFA8AFA504555D3D9465FFA8BFB1420EC
:10C88000DFF8981700FB0B10C07B82464AE05FFA86
:10C890008BFB1420DFF8841700FB0B10C07BFFB26A
:10C8A000B8423FD38DF800B05FFA8BFB1420DFF85D
:10C8B0006C1700FB0B10C07B070033E05FFA8BFBAB
:10C8C0001420DFF8581700FB0B10807B022829D1B9
:10C8D000002C11D020685FFA8BFB1421DFF83C2775
:10C8E00001FB0B214968884206D1DFF8340780F844
:10C8F00000B0584640B28CE05FFA8BFB1420DFF8A2
:10C900001C1700FB0B10C07B5FFA88F8404509D369
:10C910005D465FFA8BFB1420DFF8001700FB0B105D
:10C92000C07B80461BF1010B5DE776B20A2E06D173
:10C930009DF8080010F00300012804D106E09DF8DE
:10C940000800800702D55FF0FF3062E076B20A2E61
:10C9500001DAB34632E06DB20A2D0ADAAB465FFA6D
:10C960008BFB1420DFF8B41600FB0B1000680028C6
:10C9700024E09DF900000A2803DA9DF800008346B0
:10C980001CE04FFA89F9B9F10A0F14DACB465FFAC5
:10C990008BFB1420DFF8841600FB0B100068FFF7F8
:10C9A0007DFE5FFA8BFB1420DFF8701600FB0B1086
:10C9B0000021016002E05FF0FF302AE05FFA8BFBAC
:10C9C000BBF10A0F5FFA8BFB1420DFF8501600FB57
:10C9D0000B1000218173002C0CD0002C01D1002001
:10C9E00000E020685FFA8BFB1421DFF8302601FBA2
:10C9F0000B2148605FFA8BFB1420DFF8201600FB48
:10CA00000B100021C173DFF8180680F800B05846FB
:10CA100040B2BDE8FE8F2DE9F84304000D0016007A
:10CA20001F00D5F8048094F82000062806208146CF
:10CA30005FFA89F9B9F1010F13D3B9F101095FFA6E
:10CA400089F95FFA89F919F8070009F808005FFA0F
:10CA500089F919EB08005FFA89F919F80610817154
:10CA6000E6E74FF40060FCF7D9FCA8F80C002900B9
:10CA70002000A2699047BDE8F2832DE9F84F040039
:10CA80000D0016001F0094F820000628002D15D078
:10CA90002868002812D021002800FCF7FFFF00289A
:10CAA0000CD15FF07040FCF7D2FC296810EA010A53
:10CAB0005FF06040FCF7CBFC824502D17FF00900BB
:10CAC00071E03900C9B22800FFF75AFE80464FFADC
:10CAD00088F8B8F1000F02D5404640B263E04FFA43
:10CAE00088F81420DFF8341500FB08100221817348
:10CAF0004FFA88F81420DFF8241500FB08100461B1
:10CB0000062081465FFA89F9B9F1010F12D3B9F114
:10CB100001095FFA89F94FFA88F81420DFF8FC144C
:10CB200000FB081019EB00005FFA89F919F80610EC
:10CB30000172E7E74FFA88F81420DFF8E01400FBF1
:10CB400008100021C1734FFA88F81420DFF8CC14C4
:10CB500000FB08100068002824D04FFA88F8142041
:10CB6000DFF8B81400FB0810D0F800B04FFA88F8CE
:10CB70001420DFF8A81400FB0810DBF80010016097
:10CB8000DBF80400824659460620FDF766FC3300B8
:10CB900014F1210251462000FFF73DFF5046FCF7FB
:10CBA000EAFDD0E70020BDE8F28F70B504000D006B
:10CBB000002C11D068680600D6F81A00A168084059
:10CBC0006168A2681140884206D10023B21D16F1A7
:10CBD0001A012000FFF751FF70BD2DE9FC4704004A
:10CBE0000D001600002C00F0B68070892A2803D2B0
:10CBF0003000FCF7C0FDAEE070680700B7F80EA08B
:10CC00000120FCF70BFC824517D1B7F812A040F2C7
:10CC10000460FCF703FC82450FD1B7F810A04FF475
:10CC20000060FCF7FBFB824507D1B7F80CA040F68B
:10CC30000600FCF7F3FB824503D03000FCF79BFDB8
:10CC400089E0042217F11C0100A8FEF771FB042201
:10CC500017F1260101A8FEF76BFB6068002802D1DE
:10CC60000020814608E001986168884202D15FF0A7
:10CC7000010901E05FF000095FFA89F9B9F1000FDD
:10CC800007D0012317F1160200A92000FFF7F5FED7
:10CC900006E0002317F1160200A92000FFF7EDFEC1
:10CCA000B88AFCF7BBFB012802D002284FD04FE026
:10CCB0005FFA89F9B9F1000F48D00220FCF7AEFB0A
:10CCC000B88217F1260017F11C010422FEF70CFDB3
:10CCD0000422211D17F11C00FEF72AFB94F8200006
:10CCE0000628062080465FFA88F8B8F1010F28D39D
:10CCF000B8F101085FFA88F818EB07005FFA88F8C6
:10CD000018EB0701897D80F820105FFA88F818EB8E
:10CD10000700807D5FFA88F808F807005FFA88F856
:10CD200018EB07005FFA88F818F8051081755FFAAC
:10CD300088F818EB07005FFA88F818F80510817179
:10CD4000D1E731002000A2699047FFE700E0FFE74C
:10CD50003000FCF710FDBDE8F3872DE9FC4104002D
:10CD60000D0016000E212800FCF7B6FC002802D0AA
:10CD70007FF0010056E00020070021003000FCF7A2
:10CD80008DFE002803D00FF23840070043E05FF02B
:10CD90007040FCF75CFB316810EA01085FF060400E
:10CDA000FCF755FB80451ED101208DF800000020C6
:10CDB0008DF801005E208DF802003068FCF747FB1B
:10CDC000000C10F07F008DF803003068FCF73FFB8B
:10CDD000000A8DF804003068FCF739FB8DF8050077
:10CDE00000A8070017E03068A16808406168A268E1
:10CDF0001140884209D0E068002803D004F20C00FA
:10CE0000060002E07FF003000CE02A003100200061
:10CE100000F00AF806E03B0014F12102290020008E
:10CE2000FFF7F9FDBDE8F6812DE9F84F04000D008C
:10CE3000160004F2210000905FF0FF372100280067
:10CE4000FCF72CFE002811D15FF07040FCF7FFFAD0
:10CE5000296810EA01095FF06040FCF7F8FA8145A3
:10CE600004D0002D02D02868002802D17FF00900EC
:10CE7000D0E001212800FFF783FC80464FFA88F8B4
:10CE8000B8F1000F02D5404640B2C3E04FFA88F82F
:10CE90001420624900FB0810807B002807D14FFA5C
:10CEA00088F814205D4900FB0810012181734FFAB6
:10CEB00088F81420594900FB0810807B012807D00E
:10CEC0004FFA88F81420554900FB0810807B02288F
:10CED0004FFA88F81420514900FB0810807B012884
:10CEE00001D0002E04D12900200000F01EF9070017
:10CEF000002E00F08D804FFA88F81420474900FB7F
:10CF00000810807B02280ED14FFA88F8142043497C
:10CF100000FB081010F10803009A31002000FFF711
:10CF20007AFD070074E04FFA88F814203B4900FBB3
:10CF30000810807B01286BD15FF00009B246BAF17E
:10CF4000000F12D0BAF80A00BAF80810884202D1CD
:10CF5000DAF8000000289AF80C00012802D001201D
:10CF6000814602E0DAF800A0E9E7B9F1000F15D038
:10CF70000022BAF808100320FCF76FFA8246BAF1D3
:10CF8000000F0FD031005046FCF772FC002809D08A
:10CF90005046FCF7F0FB0020824603E0B2465046C4
:10CFA000FCF739FCBAF1000F32D00620FDF73BFA4E
:10CFB0008346BBF1000F28D00020CBF80000CBF84F
:10CFC00004A04FFA88F81420144900FB08100068E8
:10CFD00000280FD04FFA88F81421104A01FB0821CD
:10CFE000096808000168002901D00068FAE7C0F864
:10CFF00000B007E04FFA88F81420084900FB081039
:10D00000C0F800B00020070002E05046FCF7B3FB78
:10D01000380040B2BDE8F28F0000000048D1002087
:10D02000CED500202DE9F24F040015001E000B9F05
:10D030005FF0000900222A210320FCF70EFA804647
:10D04000B8F1000F02D15FF0FF306CE0B8F80A00D1
:10D050002A28D8F804008346BDF83400FCF7DEF92E
:10D06000ABF8140094F820000628062082465FFAE8
:10D070008AFABAF1010F27D3BAF1010A5FFA8AFAE4
:10D080001AEB0B005FFA8AFA1AF8061081755FFA3C
:10D090008AFA1AEB0B005FFA8AFA1AF8071080F87E
:10D0A00020105FFA8AFA5FFA8AFA1AF805000AF87D
:10D0B0000B005FFA8AFA1AEB0B005FFA8AFA009902
:10D0C0001AF801108171D2E71BF11C000A990422A1
:10D0D000FEF70AFB1BF126000C990422FEF704FB65
:10D0E0000120FCF79BF9ABF80E004FF40060FCF751
:10D0F00095F9ABF8100040F20460FCF78FF9ABF83B
:10D10000120040F60600FCF789F9ABF80C00414626
:10D110002000A269904781464046FCF72CFB002086
:10D120008046484640B2BDE8F28F30B585B0040075
:10D130000D000120039002950FF28C000190201D3C
:10D14000009014F121030FF2780214F12101200064
:10D15000FFF768FF05B030BD70B504000D006068D2
:10D160000600B089FCF75AF9B0F5006F04D040F61C
:10D170000601884216D01CE021002800FFF715FDAB
:10D180007FF00D012000FCF7A7FA002805D0200051
:10D19000FCF7F1FA0020040003E029002000FEF76C
:10D1A00004F90BE0220015F121012800FFF715FD1D
:10D1B00004E02000FCF7DFFA00200400002070BD2E
:10D1C000FFFFFFFFFFFF0000000000000000000065
:10D1D0002DE9F04104000D00002006002700ADB24B
:10D1E000022D0DD33878000280467F1C387850EA33
:10D1F00008087F1C1FFA88F818EB0606AD1EEEE73C
:10D20000ADB2012D06D33878000280461FFA88F8A7
:10D2100018EB0606B0B210EB1646300C00040028DE
:10D2200002D0B0B210EB1646300080B2FCF7F6F830
:10D23000BDE8F08138B504000D00290089B2200056
:10D24000FFF7C6FFC04380B232BDF8B5040000202E
:10D250000700002006002500002D19D069896868A4
:10D26000FFF7B6FFC0190700B8B210EB174768897F
:10D27000022190FBF1F202FB1102002A06D0D6F146
:10D280000106F8B2C7F3072151EA00272D68E3E74A
:10D29000F6B2002E04D0F8B2C7F3072151EA0027F6
:10D2A000F84380B2F2BD00002DE9F04F8DB00020B0
:10D2B00005900020ADF812000024002500265FF044
:10D2C00000085FF0000B5FF000095FF0000A00202B
:10D2D0008DF8100000208DF81100002700208DF837
:10D2E000090000208DF80D0000208DF80500DFF802
:10D2F000980C059005980089ADF8120005980599DD
:10D3000009694160059840680088BDF8121088429C
:10D3100001F01B810598406800690400B4F8C00161
:10D32000002841F00B812089401EB4F89C118842EE
:10D33000C1F20481B4F8C201401CA4F8C201B4F8DF
:10D340009C01002820D0B4F89C0114EB4000008917
:10D3500001F06CFA0500A988688801F082FA83461A
:10D360000020CBF806000020ABF80A00BBF8020052
:10D370004FF61F610840ABF80200BBF8020050F006
:10D380002000ABF8020001E000200500B4F89C0189
:10D3900014EB40004089A4F89E01B4F89E0101F00E
:10D3A00045FA0600B188708801F05BFA8146B4F84E
:10D3B0009C012189491E884208DB4FF6FF70A4F8C2
:10D3C000AC01002080460020824612E0B4F89C01A7
:10D3D00014EB40008089A4F8AC01B4F8AC0101F072
:10D3E00025FA8046B8F80410B8F8020001F039FABE
:10D3F0008246B4F89C012189891E884204DB4FF6DD
:10D40000FF70A4F8BE0106E0B4F89C0114EB4000E4
:10D41000C089A4F8BE01B4F89C0100280ED108A868
:10D4200031000E22FEF760F94FF6FF70009008A859
:10D430000FC801F04FFA8DF8100010E008A8310075
:10D440000E22FEF751F9B4F89C0114EB400000895C
:10D45000009008A80FC801F03DFA8DF8100008A848
:10D4600031000E22FEF740F9B4F8AC01009008A894
:10D470000FC801F02FFA8DF811009DF811109DF8DA
:10D48000100001F04FFAA4F8A401B4F8AC014FF673
:10D49000FF71884223D008A841460E22FEF724F9E6
:10D4A000B4F89E01009008A80FC801F013FA8DF897
:10D4B000100008A841460E22FEF716F9B4F8BE0186
:10D4C000009008A80FC801F005FA8DF811009DF82A
:10D4D00011109DF8100001F025FAA4F8B201BAF17C
:10D4E000000F00F04781B4F8B201012817D19AF873
:10D4F00002000A21084201D0012700E00027FFB204
:10D50000B4F8B801BFB2B84209D0A4F8B87101208C
:10D51000A4F8BA01B4F8BC01401CA4F8BC01B4F8EA
:10D52000B201012816D1BAF80200C0F3400080B25F
:10D5300010F001000700B4F8B801BFB2B84209D03A
:10D54000A4F8B8710120A4F8BA01B4F8BC01401CD9
:10D55000A4F8BC01B4F8B2010C2816D1BAF8020044
:10D56000C0F3C00080B210F001000700B4F8B801A9
:10D57000BFB2B84209D0A4F8B8710120A4F8BA012A
:10D58000B4F8BC01401CA4F8BC01B4F8B2010228F4
:10D5900017D19AF802001421084201D0012700E0B7
:10D5A0000027FFB2B4F8B801BFB2B84209D0A4F85E
:10D5B000B8710120A4F8BA01B4F8BC01401CA4F869
:10D5C000BC01B4F8B201092816D1BAF80200C0F3C0
:10D5D000001080B210F001000700B4F8B801BFB22B
:10D5E000B84209D0A4F8B8710120A4F8BA01B4F87F
:10D5F000BC01401CA4F8BC01B4F8B2010B2816D140
:10D60000BAF80200C0F3800080B210F001000700F9
:10D61000B4F8B801BFB2B84209D0A4F8B87101207B
:10D62000A4F8BA01B4F8BC01401CA4F8BC01B4F8D9
:10D63000B201042817D19AF802000C21084201D047
:10D64000012700E00027FFB2B4F8B801BFB2B8422A
:10D6500009D0A4F8B8710120A4F8BA01B4F8BC014B
:10D66000401CA4F8BC01B4F8B201052816D1BAF8E0
:10D670000200C0F3C00080B210F001000700B4F84F
:10D68000B801BFB2B84209D0A4F8B8710120A4F81B
:10D69000BA01B4F8BC01401CA4F8BC01B4F8B20152
:10D6A000072816D1BAF80200C0F3800080B210F04B
:10D6B00001000700B4F8B801BFB2B84209D0A4F81D
:10D6C000B8710120A4F8BA01B4F8BC01401CA4F858
:10D6D000BC01B4F8B201032816D1BAF80200C0F3B5
:10D6E000400080B210F001000700B4F8B801BFB2EA
:10D6F000B84209D0A4F8B8710120A4F8BA01B4F86E
:10D70000BC01401CA4F8BC01B4F8B201062816D133
:10D71000BAF80200C0F3400080B210F00100070028
:10D72000B4F8B801BFB2B84209D0A4F8B87101206A
:10D73000A4F8BA01B4F8BC01401CA4F8BC01B4F8C8
:10D74000B201082816D1BAF80200C0F3001080B266
:10D7500010F001000700B4F8B801BFB2B84209D018
:10D76000A4F8B8710120A4F8BA01B4F8BC01401CB7
:10D77000A4F8BC01B4F89C012189491E884240F0FC
:10D78000FE80B9F802004FF61F610840A9F80200B8
:10D79000B9F8020050F04000A9F802006068C9F82A
:10D7A0000600B9F80200C0F3800080B2002803D060
:10D7B000B4F8A40102280CD0B9F80200C0F340006C
:10D7C00080B2002800F03F83B4F8A401012840F0A3
:10D7D0003A830320A4F8C001606806900320ADF8E6
:10D7E0001C00DDE9060100F0C4FEB9F80A000028BB
:10D7F00040F0C080B088012820D17088DFF8501D2B
:10D8000011EB40007188DFF8482D12EB410131F82F
:10D81000041C491C20F8041C02208DF8050001207E
:10D820008DF804007288D2B27088DFF8241D11EBE5
:10D83000400030F8041C019801F05BFCB08802281D
:10D8400020D17088DFF80C1D11EB40007188DFF8E3
:10D85000042D12EB410131F8041C491C20F8041C72
:10D8600002208DF8050002208DF804007288D2B2E3
:10D870007088DFF8E01C11EB400030F8041C0198C0
:10D8800001F037FC002D6BD0A888012820D16888D2
:10D89000DFF8BC1C11EB40006988DFF8B42C12EBF8
:10D8A000410131F8041C491C20F8041C02208DF8A9
:10D8B000050001208DF804006A88D2B26888DFF87C
:10D8C000901C11EB400030F8041C019801F011FC91
:10D8D000A888022820D16888DFF8781C11EB400066
:10D8E0006988DFF8702C12EB410131F8041C491CE7
:10D8F00020F8041C02208DF8050002208DF8040099
:10D900006A88D2B26888DFF84C1C11EB400030F80E
:10D91000041C019801F0EDFBA888032820D1688839
:10D92000DFF8341C11EB40006988DFF82C2C12EB77
:10D93000410131F8041C491C20F8041C02208DF818
:10D94000050003208DF804006A88D2B26888DFF8E9
:10D95000081C11EB400030F8041C019801F0C9FBD1
:10D960000020C9F80600B9F802004FF61F61084010
:10D97000A9F80200206801F043FC00F0DFBDB9F80F
:10D9800002004FF61F610840A9F80200B9F8020032
